:020000040001F9
:1090000090B70020C5930100CD930100CF930100DC
:10901000D1930100D3930100D5930100000000001B
:10902000000000000000000000000000D7930100D5
:10903000D993010000000000DB930100DD930100E3
:1090400079C90200DF93010011F40200DF930100EF
:10905000DF930100DF93010021AB0200E5CC0200A9
:10906000DF930100F9F30200DF930100DF930100B9
:10907000DF930100C1CA0200DF930100DF9301000A
:10908000DF930100E9CA0200DF930100DF930100D2
:109090000BD20200DF93010013D20200DF93010024
:1090A000DF930100DF930100DF930100DF930100F4
:1090B000DF930100DF9301000000000000000000CA
:1090C000DF930100DF930100DF930100DF930100D4
:1090D000DF930100DF930100DF9301000000000037
:1090E0000000000000000000000000000000000080
:1090F0000000000000000000000000000000000070
:10910000000000000000000000000000000000005F
:10911000000000000000000000000000000000004F
:10912000000000000000000000000000000000003F
:10913000000000000000000000000000000000002F
:10914000000000000000000000000000000000001F
:10915000000000000000000000000000000000000F
:1091600000000000000000000000000000000000FF
:1091700000000000000000000000000000000000EF
:1091800000000000000000000000000000000000DF
:1091900000000000000000000000000000000000CF
:1091A00000000000000000000000000000000000BF
:1091B00000000000000000000000000000000000AF
:1091C000000000000000000000000000000000009F
:1091D000000000000000000000000000000000008F
:1091E000000000000000000000000000000000007F
:1091F000000000000000000000000000000000006F
:10920000DFF810D000F06CFB004800471B80030023
:10921000AFF3008090B7002030B450E8012F93B234
:10922000C48923448489A34228BF1B1B0489A34209
:1092300002BFBFF32F8F002007E0C3EA020340E81C
:109240000134002CE9D14FF001000A6030BC7047B6
:1092500050E8012FC2EA024240E801210029F7D17B
:10926000704730B450E8022F1FFAA2F3C488A3421B
:1092700002BFBFF32F8F00200DE0C48923448489EF
:10928000A34228BF1B1BC2EA034340E80234002C60
:10929000E8D14FF001000A6030BC704750E8022F5F
:1092A000C2EA224240E802210029F7D17047034672
:1092B00053E8022FD988B2EB324F4FF0000017BFAE
:1092C00092B241EA014142EA014104E05A68B2EB3C
:1092D000324F08BF012043E80212002AE8D170474C
:1092E00030B4044654E8000F0D4644E80053002B08
:1092F000F8D1156030BC704730B4044654E8000F14
:1093000040EA010544E80053002BF7D1156030BC5A
:10931000704730B4044654E8000F00EA010544E801
:109320000053002BF7D1156030BC704730B40446B1
:1093300054E8000F80EA010544E80053002BF7D100
:10934000156030BC704730B4044654E8000F00EBA1
:10935000010544E80053002BF7D1156030BC70477D
:1093600030B4044654E8000FA0EB010544E8005374
:10937000002BF7D1156030BC704770B404464FF035
:10938000000054E8006F0D68AE4207BF44E80023B8
:10939000012044E800630E60002B1CBF0020F0E7B2
:1093A00070BC704730B4044654E8000F88422CBFAC
:1093B000451A054644E80053002BF5D1156030BC32
:1093C000704700000648804706480047FEE7FEE772
:1093D000FEE7FEE7FEE7FEE7FEE7FEE7FEE7FEE765
:1093E00029E5020001920100202A04DB203A00FA5C
:1093F00002F1002070479140C2F1200320FA03F3EC
:1094000019439040704710B5431A934209D283180C
:10941000881803E010F8011D03F8011D521EF9D24F
:1094200010BD40EA01039B0703D009E008C9121FE1
:1094300008C0042AFAD203E011F8013B00F8013B0E
:10944000521EF9D210BDD2B201E000F8012B491E24
:10945000FBD270470022F6E710B513460A460446D1
:109460001946FFF7F0FF204610BD421E12F8013FDB
:10947000002BFBD111F8013B02F8013B002BF9D185
:10948000704730B505462A460B4612F8010B13F813
:10949000014B08B1A042F8D01CB1002802D06D1CCD
:1094A000F1E7284630BD421C10F8011B0029FBD112
:1094B000801A704730B504460020034600E05B1C6C
:1094C000934203D2E05CCD5C401BF8D030BD034634
:1094D00011F8012B00F8012B002AF9D1184670472A
:1094E00030B50B46014600202022012409E021FA74
:1094F00002F59D4205D303FA02F5491B04FA02F571
:109500002844151EA2F10102F1DC30BD2DE9F05F07
:109510000546002092469B468846064681464024E2
:109520001BE0284641464746224600F0EBF95346E9
:109530005A46C01A914110D3114618462246FFF7E9
:1095400053FF2D1A67EB01084F46224601200021E8
:10955000FFF74AFF17EB00094E41201EA4F101045A
:10956000DFDC484631462A464346BDE8F09F2DE9F8
:10957000FE4F804681EA0300C00F0C46009021F0A8
:10958000004123F00045B8EB0200A94105D2404656
:10959000214690461C460B46024623F000401043ED
:1095A00047D0270DC7F30A00C3F30A510290401AAF
:1095B000019040286BDAC3F3130040F4801B00983D
:1095C000924620B10023D2EB030A63EB0B0B019808
:1095D0005946C0F140025046FFF706FF06460D46C9
:1095E00050465946019A00F09DF910EB0800614180
:1095F000002487EA115284EAE7731A4340D0009AA4
:1096000062B3019A012A4FEA075215DC001B61EB95
:1096100002014FF0004202EA0752CDE90042001C6D
:1096200041F5801132462B4600F09DF903B0BDE8AC
:10963000F08F40462146F9E7001B61EB0201001C58
:1096400041F5801300185B412018A2F5001747EB85
:10965000030140EAD570B6196D4111E06D084FEA7B
:10966000360645EAC0754FEA0752001B61EB02015E
:10967000001C41F5801149084FEA300000195141A2
:1096800032462B4603B0BDE8F04F00F05DB90098BC
:10969000012240000023D0EB020263EBE07300984C
:1096A00021464FEAE074B8EB000061EB0401E9E702
:1096B00083F000435BE781F0004158E72DE9FE4F5E
:1096C00081EA030404F0004421F0004100944FF0CB
:1096D000000B23F0004350EA01045ED052EA030479
:1096E0005BD0C3F30A54C1F30A552C44A4F2F334FB
:1096F0000194A0FB0254C1F3130141F48011C3F3A0
:10970000130343F4801301FB024400FB034E840A5D
:10971000970A44EA815447EA8357A4FB07680295F5
:109720008D0A05FB07854FEA932C04FB0C54270593
:10973000029D4FEA065847EA1637B5EB08056EEB6F
:10974000070C870E920E47EA811742EA8312A7FBA5
:109750000201B6EB0B0164EB00042B0D43EA0C3362
:109760005E1844EB1C50DA465146E7FB0201C5F394
:1097700013044FEA0B3343EA14534FEA0432019CBB
:1097800043EA0603A4F10C040294009CCDE900B462
:1097900000F0E9F803B0BDE8F08F00200146F9E7DA
:1097A0002DE9F04D81EA030404F0004B21F000455F
:1097B00014464FF0000A23F0004150EA050220D081
:1097C00054EA01021DD0C5F30A570246C5F313033C
:1097D000C1F31300C1F30A5640F4801543F480131B
:1097E000A7EB0608101BD64608F2FD3873EB050000
:1097F00002D308F1010801E092185B41B8F1000FB3
:1098000003DA00200146BDE8F08D00204FF48011FE
:10981000064684460EE0171B73EB050705D3121BA3
:1098200063EB050306434CEA010C49084FEA30009C
:1098300092185B4150EA0107EDD152EA030012D0C1
:1098400082EA040083EA0501084305D0101BAB41FE
:1098500006D20122002306E000224FF0004302E07E
:109860006FF0010253101AEB06004CEB085110EB9D
:109870000A0041EB0B01BDE8F04D00F065B8C1F303
:109880000A52C1F3130140F2FF3341F480119A42AE
:1098900002DA00200146704740F233439A42A2F2B6
:1098A000334202DC524200F02DB8FFF79DBD0000AC
:1098B00030B5041E71F1000404DB4FF00044404257
:1098C00064EB0101141E73F1000405DB1C464FF02C
:1098D0000043524263EB0403994208BF904230BDFB
:1098E000064C074D06E0E06840F0010394E80700ED
:1098F00098471034AC42F6D3FFF786FCA8D6030095
:10990000C8D60300202A04DB203A21FA02F0002105
:10991000704721FA02F3D040C2F12002914008437F
:1099200019467047202A06DBCB17203A41FA02F08D
:1099300043EAE07306E041FA02F3D040C2F12002AC
:10994000914008431946704710B5141E73F1000486
:1099500008DA401C41F1000192185B411A4301D121
:1099600020F0010010BD2DE9F04D92469B4611B14B
:10997000B1FA81F202E0B0FA80F220329046FFF7AD
:1099800033FD04460F4640EA0A0041EA0B01534604
:109990005A46084313D0114653EA010019D0C8F1C2
:1099A00040025046FFF7AEFF05460E465046594668
:1099B0004246FFF719FD084305D0012004E0204688
:1099C0003946BDE8F08D0020054346EAE0762C4399
:1099D00037430A986305E40AA0EB08000022FD0A59
:1099E00044EA47540A3002D500200146E9E7010560
:1099F00010196941DDE9084500196941BDE8F04DDC
:109A0000A2E770B58C1810F8015B15F0070301D1BF
:109A100010F8013B2A1106D110F8012B03E010F8D1
:109A2000016B01F8016B5B1EF9D12B0705D40023F4
:109A3000521E0DD401F8013BFAE710F8013BCB1A96
:109A4000921C03E013F8015B01F8015B521EF9D58B
:109A5000A142D8D3002070BD1FB5FF220D2168465A
:109A6000FFF7F1FC0D2269464FF4007011F0C6FAC1
:109A70001FBD0000014890F804017047F42E00203B
:109A800070B504460D46034A294620460DF09EFE59
:109A900070BD0000759D010010B50AF0B7FC0AF01A
:109AA00063FE0AF011FD0AF00DFD00F015FB10BD7C
:109AB000014981F804017047F42E002070B5044676
:109AC0000D462946204618F0AFFA70BD70B5044621
:109AD0000D462946204618F03AFB70BD0FB400B57C
:109AE0008DB0302212A96846FFF78DFC0EA80FC872
:109AF00018F0AAFB0DB05DF814FB000015480078C3
:109B0000012805D013480078052801D000207047AF
:109B10000021104890F84100B8B1012804D0022873
:109B20000FD0032810D10DE00A480078052802D193
:109B3000094801780BE0084A107800EBD072511008
:109B400005E000BF072102E000BF002100BF00BF09
:109B50000846DCE7042B0020482B002070B50446A3
:109B60000D46164632462946204618F0BFFA70BD0B
:109B700001460B4A92F8410092F8412072B1084A1E
:109B800092F84120012A09D0054AB2F842200A8001
:109B90000022034BA3F8422083F8412070470000C5
:109BA000042B002010B510F0B7FD10BD10B510F05B
:109BB000C3FD10BD10B50021032018F01FFF10F0E9
:109BC000DDFD10BD0FB438B59DF81000FF2807D09B
:109BD0009DF81000092803DB002038BC5DF814FB59
:109BE000002000909DF814404D2C01D0012000E091
:109BF000002005469DF81000012806D16946284638
:109C000018F012FA08B90020E7E79DF810000128C3
:109C100005D105208DF81000002012490870124867
:109C200090F84100012801D110F036FF10F050FFEC
:109C300000200E4908700E4908700B49A1F8420037
:109C4000012081F841009DF81000087040220DF1BC
:109C500011010548401CFFF7D6FB642018F0EEFD0B
:109C60000120BAE7552B0020042B0020542B0020A4
:109C7000482B002008B510F009FF10F047FDFF2821
:109C800007D110F073FD20B10021042018F0B6FEBA
:109C900008BD10F047FD20B910F038FDFF2800D1B5
:109CA000F6E718480078092804DB0021032018F0A3
:109CB000A5FEEDE710F02AFDFF2804D1114890F829
:109CC0004100012800D0E3E718F062FFB8B918F0AE
:109CD00033F900B9DCE700200090684618F0B4FDC5
:109CE00000B9D5E70749097801EB0111064A11448B
:109CF000064A1278885C009910F050FE00BF00BF41
:109D0000C6E70000042B0020C4C60300482B002037
:109D100010B50121002018F071FE10BD10B5122001
:109D20000EF0BFF912200EF0BCF951210148FFF7E7
:109D300091FB10BD3E2E002010B512200EF0B1F99F
:109D4000022012F04FFE12200EF09EF9022012F0B7
:109D500049FE1CF079FA51210148FFF77BFB10BD49
:109D60003E2E002002460120704770470346012026
:109D70007047704770B504460D462946204619F0D5
:109D8000B9FE08B1012070BD0020FCE7064800685C
:109D900038B10548006804490968491E024A116043
:109DA00070470020FCE700005C2B002010B50AF093
:109DB0007FFF08B1012010BD4FF0FF30FBE7704777
:109DC000F0B5C1B004460025FE20474908710921BD
:109DD000454841718471408801124348C1718178BE
:109DE000017242480078002853D09B2C51D03E4845
:109DF0004088C01D82B23C49091D3DA012F010FEF2
:109E00004FF4807101A8FFF725FB374A5288D11C17
:109E1000CA1701EB12721211A1EB02124AB1324AB7
:109E20005288D01CC21700EB12721211521C120180
:109E300002E02D4A5288D21C96B22B484088401C22
:109E4000000A8DF8040028488078401CC0B28DF8C4
:109E500005008DF806402448428800F109010DF103
:109E60000700FFF7D0FA214B4133324601A9002009
:109E700010F0F6FB324601A91B480930FFF7C3FA80
:109E800019484680408801121748C17181780172D3
:109E900000BF012006E01449091D095C29448DB268
:109EA000411CC8B210494988491D8142F3DC2A127D
:109EB0000D484088401D0C49091D0A54081F408860
:109EC000801D0D540127081F8078C01DC1B20648AF
:109ED000001D1AF07FF84FF482710348FFF7BAFAB9
:109EE000384641B0F0BD0000F42E00203E2E002088
:109EF0004944325F456E6344415441007FB5044696
:109F00000D461646002000900190029003901E48D6
:109F1000D0F80B120091D0F80F020190002009E058
:109F20001DF80010C943CAB200F108010DF8012064
:109F3000411CC8B20828F3DB002013E01DF8001014
:109F4000124A125C51400DF8001000F108011DF892
:109F500001100E4A125C514000F108020DF8021087
:109F6000411CC8B20828E9DB34B16B4632462946A9
:109F7000002010F075FB05E06B46324629460120B3
:109F800010F06EFB7FBD0000F42E002063C60300BE
:109F900070B5A0B005460E46307820B9012030706B
:109FA00000201E4908701D48007810B1012830D1EA
:109FB00017E044210FA8FFF74DFA02208DF83C006E
:109FC00029120FA88170C570342213A96846FFF7C3
:109FD0001AFA0FA80FC8FFF7F5FD01200F49087006
:109FE00018E00EA8FFF7C4FD0446022C07D1FFF7C6
:109FF0008FFE002009490870012020B070BD032C9D
:10A0000006D1FFF785FE002004490870401EF4E7E2
:10A0100000E000BF00BF0020EFE70000D42A0020CE
:10A020001CB50446207880B9012020702848008A99
:10A030004AF2B751884201D002201CBD052008F029
:10A04000B7F90121142006F0D9FF08F0CBF9042854
:10A050003ADB00200190009001A9684608F0C8F999
:10A0600004226946684612F0B1FC002008F0A0F90D
:10A070000021142006F0C2FF0121162006F0BEFFC9
:10A080000021112006F0BAFF124890F80A019DF84D
:10A090000010884216D10F4890F80B019DF801106E
:10A0A00088420FD10B4890F80C019DF802108842AD
:10A0B00008D1084890F80D019DF80310884201D19D
:10A0C0000020BAE70120B8E74FF0FF30B5E7000005
:10A0D000C82D0020F42E002070B50024FE48007822
:10A0E000142879D2DFE800F0781EA4D5F3F2F178D5
:10A0F000F00AEFEEED78ECEBEA7878E9F748FFF755
:10A100008FFF0446B4F1FF3F0BD0F54844720120A5
:10A11000F34948804220FFF753FE0020F04981F8C0
:10A1200006026AE3ED48007810B90020ED49087096
:10A13000EC480078D8B9E94814F042FC0446012CF8
:10A1400009D1E948C07D10B9032012F0ADF9012012
:10A15000E44908700BE0B4F1FF3F08D1E248C07D4C
:10A1600010B9032012F0A0F90220DE490870DD4882
:10A170000078012817D10021D94841720120D8491F
:10A1800048803520FFF71CFE0020D34908700021CD
:10A19000192012F0F1F80121642005F0FDFF0020E4
:10A1A000D049087043E0CF480078022815D101213A
:10A1B0000F2006F023FF0021142006F01FFF0121CD
:10A1C000152006F01BFF4FF496716B2012F0D4F8A7
:10A1D0000320C44908702AE00BE3C2480078032832
:10A1E0000AD111F023FD10BB0420BE4908700021E4
:10A1F0008B2012F0C1F81AE0BA480078042816D172
:10A200000121B74841720120B54948803520FFF748
:10A21000D7FD0020B049087000211A2012F0ACF8D8
:10A220000121642005F0B8FF0020AE490870E4E287
:10A23000AA48007850B90120A84908706222AB49A9
:10A24000D8200AF03BFFAA49087021E0A84800780E
:10A250000AF038FD44B2052C0CD10021A04841720F
:10A2600001209F494880F520FFF7AAFD00209A4968
:10A2700008700DE0062C0BD1012199484172012094
:10A2800097494880F520FFF79BFD00209249087010
:10A29000B3E29249F72008F045FE0446012C17D19D
:10A2A00000218F48417201208D494880F720FFF737
:10A2B00087FD00208849087019E0F9E19BE017E06C
:10A2C000E2E16FE13AE1ABE1E8E0BEE064E036E014
:10A2D000B4F1FF3F0BD10121814841720120804937
:10A2E0004880F720FFF76CFD00207B49087084E26E
:10A2F000012C10D17F48807855280CD10021784856
:10A300004172012076494880EB20FFF759FD00207B
:10A310007149087012E0B4F1FF3F03D075488078AE
:10A3200033280BD101216E48417201206C494880CD
:10A33000EB20FFF745FD0020674908705DE26749A3
:10A340006D48007806F061FA0446012C15D16A4880
:10A3500000786549C877012163481F3015F012F86D
:10A3600000215F48417201205D4948808820FFF745
:10A3700027FD0020584908700DE0601C58B90121E4
:10A38000574841720120564948808820FFF718FD40
:10A3900000205149087030E25048007840B904204C
:10A3A00008F028F95249087001204C49087021E052
:10A3B0004F4800780AF086FC44B2052C0CD10021ED
:10A3C000474841720120464948804020FFF7F8FC89
:10A3D0000020414908700DE0062C0BD101214048B6
:10A3E000417201203E4948804020FFF7E9FC0020EF
:10A3F0003949087001E23949F72008F093FD044615
:10A40000012C10D100213648417202203449488085
:10A410003848417A324881728D20FFF7D1FC002004
:10A420002D49087010E0601C70B901212C48417260
:10A4300002202B4948800021294881728D20FFF796
:10A44000BFFC002024490870D7E124492B4800882C
:10A45000FFF79EFD0446012C11D1002120484172D6
:10A4600001201F4948802820FFF7AAFC00201A4934
:10A47000087022480188262013F046FE0DE0601C7B
:10A4800058B90121164841720120154948802820F9
:10A49000FFF796FC002010490870AEE10F480078E5
:10A4A00050B901200D49087000221146DA200AF047
:10A4B00005FE0F49087040E00D4800780AF002FCE4
:10A4C00044B2052C2BD1002105484172084802787E
:10A4D00003490A31DA2013E0CC2A0020D02A0020D8
:10A4E000F42E0020D62A0020C82D0020FE2F0020A8
:10A4F000D52A00201E430020CD2A0020CE2A00208D
:10A500000AF0ACFBBE49488008464088401C4880A1
:10A51000A320FFF755FC0020BA4908700DE0062C77
:10A520000BD10121B64841720120B5494880A320D2
:10A53000FFF746FC0020B34908705EE1B24800789E
:10A5400050B90120B04908700122B049A3200AF097
:10A55000B5FDAF49087024E0AD4800780AF0B2FBC1
:10A5600005280CD10021A64841720120A449488049
:10A57000A420FFF725FC0020A249087011E0A448A0
:10A5800000780AF09FFB06280BD101219C484172FC
:10A5900001209B494880A420FFF712FC0020994924
:10A5A00008702AE19848007850B90120964908704F
:10A5B00000221146DB200AF081FD954908702EE04B
:10A5C000934800780AF07EFB052816D1904802785F
:10A5D0008B490931DB200AF041FB89494880002181
:10A5E000874841724088401C85494880E120FFF738
:10A5F000E7FB00208349087011E0854800780AF0E5
:10A6000061FB06280BD101217D48417201207C4964
:10A610004880E120FFF7D4FB00207A490870ECE085
:10A620007948007850B9012077490870C0227749ED
:10A63000D5200AF043FD7649087024E0744800787C
:10A640000AF040FB05280CD100216D484172012021
:10A650006B494880E520FFF7B3FB0020694908708B
:10A6600011E06B4800780AF02DFB06280BD1012180
:10A6700063484172012062494880E520FFF7A0FB52
:10A68000002060490870B8E001205D494880002141
:10A690005B48417201205F4981F8C800042007F03F
:10A6A000A9FFD220FFF78CFB002056490870A4E0D8
:10A6B0005548007878B90120574908805748808963
:10A6C000B0F5167F03DD01204F49087090E00220AD
:10A6D0004D4908708CE04C48007801283DD14E4827
:10A6E0000088B0F5167F34DC4C48C0894A49098897
:10A6F000884209DB4948C08947490988401A4FF414
:10A70000AA4101EB00150AE04448C0894249098882
:10A71000081AC0F516704FF4AA4101EB00150E227D
:10A7200037490C31284610F05BFC11203449488031
:10A73000002133484172022181725821C1729B204D
:10A74000FFF73EFBB8B334480088401C324908800C
:10A750004EE003202C4908704AE02B48007802287C
:10A760002ED12E48C0892C490988884224DB2B48E9
:10A77000C08929490988401A4FF4AA4101EB001504
:10A780000E221F490C31284610F02AFC11201C49CA
:10A7900048802248C0890112194881721F48817B74
:10A7A0001748C1729B20FFF70BFB20B11A480088A5
:10A7B000401C194908801BE003201349087017E06A
:10A7C00011480078032813D100200F490870002198
:10A7D0000B48417201200A4948809B20FFF7F0FA9C
:10A7E000012141F2707005F0D7FC00200549087086
:10A7F00003E000200449087000BF00BF70BD0000E6
:10A80000F42E0020CC2A0020D02A0020FE2F002089
:10A81000D52A00203A3D0020D82A0020202E0020F2
:10A820001048007800EB80110E48801C00EBC1003E
:10A83000B0F80402A8B10B48007800EB8011094879
:10A84000801C00EBC100B0F80402401E81B2054834
:10A85000007800EB80120348801C00EBC200A0F8D7
:10A86000041270470831002010B510F0D5FB00220B
:10A8700001210C2010F008FC002201210D2010F015
:10A8800003FC002201210F2010F0FEFB0022012119
:10A890000E2010F0F9FB01200D49087000200D4931
:10A8A000088000BF10E00C4901EB40014A780B49D9
:10A8B000095C62F34101094A11541146095C21F017
:10A8C00001011154411CC8B20428ECDB10BD00008A
:10A8D000002B0020F62A0020BBC60300F82A002027
:10A8E0000148007870470000002B002070B50D2053
:10A8F00010F0A7FB054607488078A84201D1012047
:10A9000000E0002004460448007800B900242046F6
:10A9100070BD0000BBC60300002B002001460248AA
:10A92000405C00F001007047F82A002010B54C4848
:10A930000078401C4A490870084600780A2190FBBC
:10A94000F1F201FB12004649087008460078E8B9A8
:10A950004448407844490978C1F3400188427DD198
:10A960000C2010F06EFB3F490978884207D13E4821
:10A97000007820F00100401C3B4908706EE03A4826
:10A98000007820F001003849087067E0344800780A
:10A99000012820D13348C07833494978C1F34001B8
:10A9A00088425BD10D2010F04CFB2E4989788842FB
:10A9B0000AD12E480078C043C0432B49497860F340
:10A9C00000012948417049E02748407820F0010003
:10A9D0002549487042E02248007802281DD12148CC
:10A9E000407921498978C1F34001884236D10F204E
:10A9F00010F027FB1B490979884207D11A48807853
:10AA000020F00100401C1849887027E01648807823
:10AA100020F001001449887020E0114800780328D4
:10AA20001CD11048C0791049C978C1F3400188424F
:10AA300014D10E2010F005FB0A498979884207D10C
:10AA40000948C07820F00100401C0749C87005E0A3
:10AA50000548C07820F001000349C87010BD00000F
:10AA6000012B0020BBC60300F82A0020002B002089
:10AA70000149087070470000002B002010B510F04D
:10AA80005BFB10BD04480088002804DD02480088F4
:10AA9000401E014908807047F62A002010B510F0CA
:10AAA0009FFB00200B49088000BF10E00A4901EB22
:10AAB00040014A780949095C62F34101074A11548F
:10AAC0001146095C21F001011154411CC8B204284F
:10AAD000ECDB10BDF62A0020BBC60300F82A0020DC
:10AAE00010B518F045F817F093FE07480068401EAF
:10AAF000054908600846006820B910F001F8642094
:10AB00000149086010BD0000582B0020704700006C
:10AB100030B59FB0514800685149096888423BD020
:10AB200000BF50A00DF044FD00BF4D4800684B49E8
:10AB30000860002053494870042007F039FC0021C8
:10AB4000142006F05BFA0021132006F057FA02F0F9
:10AB50006FFB4AF2B751884203D1002007F028FC6E
:10AB600002E0042007F024FC44210EA8FEF772FC4A
:10AB700001208DF838004D210EA80171342212A950
:10AB80006846FEF740FC0EA80FC8FFF71BF841F21D
:10AB900070703D49086000BF3A48407828BB0020EB
:10ABA0001E901EA8FEF7E4FF0546022D10D10120DD
:10ABB00004F004FE96211D2011F0DEFBBDF8781094
:10ABC000252013F0A1FA01202E4948701FB030BD96
:10ABD000032D01D0042D07D196211E2011F0CCFBAE
:10ABE000012028494870F1E714E026484078012800
:10ABF00010D111F01BF868B902F01AFB4AF2B751F4
:10AC0000884203D12F2003F04DFCDFE70A2003F038
:10AC100049FCDBE707F006FC04460B2C05D1FFF7E7
:10AC200077F80A2003F03EFCD0E71748006898B98F
:10AC300000BF16A00DF0BCFC00BFFFF769F802F0E2
:10AC4000F7FA4AF2B751884203D12F2003F02AFCC9
:10AC5000BCE70A2003F026FC00BFB7E7682B002002
:10AC6000642B00204170705F4755495F4164644127
:10AC7000646D696E46696E6765724D656E752829EB
:10AC80000A0000006C2B0020702B002067756920E3
:10AC90006F7074696F6E2074696D656F7574210AC9
:10ACA000000000007047000030B59FB03F480068CA
:10ACB0003F49096888422ED000BF3EA00DF078FCC5
:10ACC00000BF3B480068394908600020414948708E
:10ACD000042007F06DFB0021142006F08FF90021FD
:10ACE000132006F08BF944210EA8FEF7B3FB0120D8
:10ACF0008DF8380047210EA80171342212A9684648
:10AD0000FEF781FB0EA80FC8FEF75CFF41F27070E2
:10AD10003149086000BF2F48407810BB00201E90CA
:10AD20001EA8FEF725FF0546022D0DD196211D20F8
:10AD300011F022FBBDF87810252013F0E5F9012071
:10AD4000244948701FB030BD032D01D0042D07D118
:10AD500096211E2011F010FB01201E494870F1E7DA
:10AD60000AE01C484078012806D110F05FFF18B9AE
:10AD70000A2003F097FBE5E707F054FB04460B2C91
:10AD800005D1FEF7C5FF0A2003F08CFBDAE7124875
:10AD9000006848B900BF11A00DF00AFC00BFFEF723
:10ADA000B7FF0A2003F07EFB00BFCBE7682B002033
:10ADB000642B00204170705F4755495F41646447D0
:10ADC0007565737446696E6765724D656E75282981
:10ADD0000A0000006C2B0020702B00206775692092
:10ADE0006F7074696F6E2074696D656F7574210A78
:10ADF0000000000010B59EB0604800686049096816
:10AE0000884215D000BF5FA00DF0D2FB00BF5C48A8
:10AE100000685A49086000206049487007F0C8FA85
:10AE20000021132006F0EAF84FF496605C490860B0
:10AE30005A48407858B90121142006F0DFF8012162
:10AE4000112006F0DBF802205449487093E0534883
:10AE50004078012807D1534800680028F6D1022025
:10AE60004E49487087E04D484078022816D1442169
:10AE70000DA8FEF7EFFA06208DF83400342211A950
:10AE80006846FEF7C0FA0DA80FC8FEF79BFEC82063
:10AE9000444908600320414948706CE03F484078CD
:10AEA000032809D13F480068002864D1FEF730FF2D
:10AEB00004203A4948705EE038484078042822D19E
:10AEC00010F0F4F90446012C03D1052033494870F1
:10AED00018E0022C10D10021142006F08FF8012177
:10AEE0000A2006F08BF80121102006F087F8962141
:10AEF000332011F041FA05E0B4F1FF3F02D1052003
:10AF00002649487037E02548407805280DD110F0D3
:10AF10008DFE08B11EB010BD4FF4AF71792011F055
:10AF20002BFA06201D49487025E01C484078062869
:10AF300017D110F07BFE00B1ECE710F069F9044680
:10AF4000012C07D1C821342011F016FA072013492B
:10AF5000487005E0B4F1FF3F02D107200F49487067
:10AF600009E00E484078072805D110F05FFE10B9BF
:10AF700000200A49487000BFCCE70000682B002081
:10AF8000642B00204170705F4755495F4167696ECF
:10AF9000546573744D656E7528290A006C2B00206A
:10AFA000702B00207C2B002010B56148006861499F
:10AFB000096888424ED000BF5FA00DF0F9FA00BFCB
:10AFC0005C4800685A4908606248C07D10B9032097
:10AFD00011F06AFA012060494870002007F0E8F992
:10AFE00001210F2006F00AF80021142006F006F8CF
:10AFF0000021132006F002F800210C2005F0FEFFCE
:10B0000000210846FEF7AEFE00216B2011F0B4F9D6
:10B01000012011F09BFA514851490860514890F8BD
:10B020002400B8B901214F4880F8241002F046F9F5
:10B0300048B101204C4981F8C900072007F0DAFA2D
:10B040000020454948700021172013F05DF843485F
:10B05000444908624048407818B901203E49487088
:10B0600063E03D484078012841D101F073F810B108
:10B070000220394948700320FFF750FC50B100BF4F
:10B080003AA00DF095FA00BF182004F09BFC14F0D4
:10B090006BF810BD002005F039FD50B100BF3AA09B
:10B0A0000DF086FA00BF182004F08CFC14F05CF858
:10B0B000EFE7012005F02AFD50B100BF3AA00DF0E6
:10B0C00077FA00BF182004F07DFC14F04DF8E0E79B
:10B0D0000C200FF0B6FFF8B900BF3BA00DF068FAE6
:10B0E00000BF182004F06EFC14F03EF8D1E71A48B7
:10B0F0004078022811D1002011F028FA00218B207D
:10B1000011F03AF91348C07D18B91249C87D11F001
:10B11000CBF903201049487007E00F484078032816
:10B1200003D12F2003F0BEF9B3E700BFB1E7000061
:10B13000682B0020642B00204170705F4755495FE9
:10B14000416C61726D48616E646C65724D656E75BF
:10B1500028290A00C82D00206C2B0020905F0100D8
:10B16000702B0020146900203A3D0020616C617250
:10B170006D20627265616B206279206B6579207445
:10B180006F756368210A0000616C61726D206272E4
:10B1900065616B206279206F70656E2062757474D2
:10B1A0006F6E210A00000000616C61726D20627296
:10B1B00065616B20627920636C6F736520627574C2
:10B1C000746F6E210A000000616C61726D20627202
:10B1D00065616B2062792066696E676572210A007D
:10B1E00010B56948006869490968884231D000BFD4
:10B1F00067A00DF0DDF900BF64480068624908608F
:10B2000000206A494870022007F0D2F8002114207B
:10B2100005F0F4FE0021112005F0F0FE01210A20C6
:10B2200005F0ECFE01210B2005F0E8FE00211320C3
:10B2300005F0E4FE1B210020FEF794FD00216F20A5
:10B2400011F09AF800205A4908704FF4FA605949F1
:10B25000086056484078D0B907F0E4F804460A2C54
:10B260000ED141F2707053490860002007F0A0F839
:10B2700000210A2005F0C2FE01204C49487005E07B
:10B280000B2C03D12F2003F00DF910BD74E04748BB
:10B29000407801280BD110F0C9FC00B1F5E7FA2184
:10B2A000362011F069F802204049487064E03F48B8
:10B2B0004078022819D13E4813F082FB0446012C45
:10B2C0000AD10021082012F01FFF01203A4908701E
:10B2D00003203649487007E0601C28B90020364931
:10B2E000087003203149487046E030484078032810
:10B2F00037D110F09BFC00283ED12F48007800BBCE
:10B300002E48C07D10B9032011F0CEF8002007F0C0
:10B310004FF801210F2005F071FE0021142005F0E7
:10B320006DFE0121152005F069FE00216B2011F052
:10B3300023F840F6B83011F055FB00218B2011F0B6
:10B340001BF81D480078012801D1192000E01A20BF
:10B350000446C821204611F00FF804201349487014
:10B360000AE012484078042806D110F05FFC18B9B2
:10B370002F2003F097F888E70E48006810B92F20B7
:10B3800003F090F800BF80E7682B0020642B0020BA
:10B390004170705F4755495F4261636B46616374FA
:10B3A0006F72794D656E7528290A00006C2B00209C
:10B3B0009D2B0020702B00209C2B0020C82D0020EE
:10B3C00010B5424800684249096888422CD000BF45
:10B3D00040A00DF0EDF800BF3D4800683B49086013
:10B3E000002006F0E5FF4248C07D10B9032011F0AF
:10B3F0005BF80021142005F001FE0121152005F065
:10B40000FDFD01210F2005F0F9FD01210C2005F0C3
:10B41000F5FD02210020FEF7A5FC0020354948700B
:10B420004FF47A703449086032484078C0B900203F
:10B430000FF018FD044614F1030F05D14FF4967177
:10B440006A2010F099FF07E014F1020F04D14FF4C5
:10B450009671832010F090FF0120264948702BE060
:10B460002448407801281CD110F0E0FB00B110BD49
:10B4700001200FF0F7FC044614F1030F05D14FF43F
:10B480009671692010F078FF07E014F1020F04D1E3
:10B490004FF49671842010F06FFF02201549487018
:10B4A0000AE014484078022806D110F0BFFB18B912
:10B4B0002F2002F0F7FFDAE70F48006818B92F20B5
:10B4C00002F0F0FFD3E700BFD1E70000682B0020B7
:10B4D000642B00204170705F4755495F426174568C
:10B4E0006F6C4C6F774572724D656E7528290A0036
:10B4F000C82D00206C2B0020702B002010B5AD480B
:10B500000068AD490968884221D000BFABA00DF0AA
:10B510004FF800BFA8480068A64908600020AD4960
:10B520004870012006F044FF0021142005F066FD5C
:10B530000021112005F062FD0121132005F05EFDC0
:10B540000020A54908704FF4FA70A4490860A1488A
:10B550004078002877D10220FFF7E0F918B14FF4C6
:10B56000FA709E4908600CF0E1FC50B100BF9CA04D
:10B570000DF01EF800BF0D2004F024FA13F0F4FDC6
:10B5800010BD06F04FFF04460D2C0CD1012010F029
:10B59000F7FA00F005FE012804D100221146FF2031
:10B5A00009F08CFDF6E0FF2C0AD000BF91A00CF052
:10B5B000FFFF00BF062004F005FA13F0D5FDDFE71A
:10B5C000002005F0A3FA50B100BF91A00CF0F0FFED
:10B5D00000BF012004F0F6F913F0C6FDD0E701200A
:10B5E00005F094FA50B100BF8FA00CF0E1FF00BF4E
:10B5F000022004F0E7F913F0B7FDC1E70C200FF0CB
:10B6000020FD50B900BF8FA00CF0D2FF00BF082072
:10B6100004F0D8F913F0A8FDB2E701F0B5FD98B138
:10B6200000BF8DA00CF0C4FF00BF042003F066FC37
:10B630000021052012F068FD042002F033FF0A20EB
:10B6400004F0C0F99CE7A6E063480FF0CDFD0128A7
:10B6500012D100BF87A00CF0ABFF00BF042003F0A5
:10B660004DFC0021052012F04FFD042002F01AFFCE
:10B670000A2004F0A7F983E78448007E012802D05D
:10B6800000F0FAFE68B100208049087600BF80A073
:10B690000CF08EFF00BF0B2004F094F913F064FD52
:10B6A0006EE7022005F032FA50B100BF80A00CF026
:10B6B0007FFF00BF032004F085F913F055FD5FE71D
:10B6C000032005F023FA50B100BF7FA00CF070FFFB
:10B6D00000BF042004F076F913F046FD50E705F0B2
:10B6E00025F950B100BF7FA00CF062FF00BF05201C
:10B6F00004F068F913F038FD42E70FF0BAFD0128B5
:10B700000AD100BF7EA00CF053FF00BF122004F04E
:10B7100059F913F029FD33E70FF0ECFD01280AD1A8
:10B7200000BF7DA00CF044FF00BF132004F04AF9D5
:10B7300013F01AFD24E70FF0CDFD01280AD100BF58
:10B740007DA00CF035FF00BF112004F03BF913F091
:10B750000BFD15E700200FF083FD01281AD100BF73
:10B760007BA00CF025FF00BF022003F0B5FF0021F5
:10B77000012012F0C9FC7C48007E01280AD100BFDC
:10B780007AA00CF015FF00BF0C2004F01BF913F099
:10B79000EBFCF5E600BF1148006840B900BF79A096
:10B7A0000CF006FF00BF2F2002F07CFEE8E600BF91
:10B7B000E6E60000682B0020642B00204170705FDB
:10B7C0004755495F42656C6C4C616D704D656E7597
:10B7D00028290A006C2B0020A52B0020702B0020AC
:10B7E00077616B65757020627920626C7565210ADE
:10B7F0000000000077616B65757020627920746FBE
:10B80000756368206B6579626F617264210A00005C
:10B8100077616B657570206279206F70656E20624C
:10B820007574746F6E210A0077616B6575702062A4
:10B830007920636C6F736520627574746F6E210A72
:10B840000000000077616B65757020627920666981
:10B850006E676572210A000077616B657570206202
:10B8600079206E6F74206175746F6C6F636B210A41
:10B870000000000077616B6575702062792061754A
:10B88000746F6C6F636B210A000000001469002064
:10B8900077616B657570206279206175746F2073B4
:10B8A00074617920646574656374210A0000000086
:10B8B00077616B657570206279206C6566742068AD
:10B8C000616E646C65210A0077616B65757020623A
:10B8D00079206D6964646C652068616E646C6521B3
:10B8E0000A00000077616B657570206279207269CB
:10B8F0006768742068616E646C65210A000000004E
:10B9000077616B6575702062792066616C73652064
:10B910006C6F636B210A000077616B657570206244
:10B92000792068616E646C652074727920666F722C
:10B93000626974210A00000077616B65757020628E
:10B940007920666F72676574206C6F636B210A00E3
:10B950006175746F206C6F636B2070757320646FFA
:10B960006F72210A00000000C82D002077616B650E
:10B97000757020627920646566656E6420776172F7
:10B980006D210A00677569206F7074696F6E20748D
:10B99000696D656F7574210A0000000010B51948C3
:10B9A00000681949096888422BD000BF17A00CF025
:10B9B000FFFD00BF144800681249086000201A49C2
:10B9C0004870082006F0F4FC0121142005F016FB55
:10B9D0000021112005F012FB0121132005F00EFBC0
:10B9E0004FF47A701149086001F02EFC142804D03D
:10B9F0004FF49671872010F0BFFC1C210020FEF749
:10BA0000B1F910BD682B0020642B00204170705FDD
:10BA10004755495F42656C6C566964656F4D656E4C
:10BA20007528290A000000006C2B0020742B0020D0
:10BA300010B5414800684149096888423CD000BFC0
:10BA40003FA00CF0B5FD00BF3C4800683A490860D3
:10BA500000204349487006F0ABFC0121152005F099
:10BA6000CDFA01210F2005F0C9FA06210020FEF7CA
:10BA700079F93C4890F84400401C3A4981F8440068
:10BA800001213848443013F07DFC364890F84400DA
:10BA9000032804DA334890F84500032805DB4FF407
:10BAA000C871892010F068FC03E096211C2010F07A
:10BAB00063FCC8202C4908602948407818BB2948F5
:10BAC00090F84400052804DA264890F84500032839
:10BAD0001ADB2648806823498864042121484830BD
:10BAE00013F050FC01F0EAFB30B10320204981F84B
:10BAF000C900072006F07EFD0021162012F004FB8D
:10BB000002201749487002E0012015494870164884
:10BB1000006870B910F08AF800B110BD1048407884
:10BB2000022803D1152002F0BDFCF6E72F2002F019
:10BB3000B9FC00BFF1E70000682B0020642B002057
:10BB40004170705F4755495F426C654F70656E4547
:10BB500072725761726D4D656E7528290A0000007A
:10BB60006C2B0020C82D0020702B00203C6A002088
:10BB70003A3D002030B58FB000200E900A900B9017
:10BB80000C900D90182104A8FDF764FCB0480068E3
:10BB9000B049096888421ED000BFAFA00CF008FD74
:10BBA00000BFAC480068AA490860052006F000FC08
:10BBB0000121142005F022FA0021132005F01EFABD
:10BBC00000216D2010F0D8FB0020AA4948704FF4E6
:10BBD000FA60A9490860A748407810BB06F022FC2B
:10BBE00004460A2C15D106F0FDFB05460EA90AA84D
:10BBF00006F0FEFB062D0BDB06220AA99F4810F07B
:10BC0000E5FE00216E2010F0B7FB01209949487035
:10BC100006E00B2C04D1012002F044FC0FB030BD33
:10BC20000DE19448407801281ED106F0FBFB044644
:10BC30000A2C12D106F0D6FB05460EA90AA806F07A
:10BC4000D7FB062D08DB06220AA98C48801D10F0C0
:10BC5000BDFE02208749487005E00B2C03D101206E
:10BC600002F020FCDAE7EAE082484078022879D145
:10BC700006228249891D881FFDF71CFC002868D117
:10BC80007E4800787D494978884217D17B48007802
:10BC90007A498978884211D1784800787749C978FB
:10BCA00088420BD17548007874490979884205D1DA
:10BCB000724800787149497988423BD06F480178D1
:10BCC0004078401C814217D16C4841788078401CF4
:10BCD000814211D169488178C078401C81420BD1E2
:10BCE0006648C1780079401C814205D163480179DA
:10BCF0004079401C81421DD0604801784078401E48
:10BD0000814220D15D4841788078401E81421AD11D
:10BD10005A488178C078401E814214D15748C17872
:10BD20000079401E81420ED1544801794079401E6D
:10BD3000814208D14FF4C871652010F01DFB04202A
:10BD40004C49487002E003204A49487066E709E020
:10BD5000FFE74FF4C871642010F00EFB0420454942
:10BD600048705BE743484078032853D157208DF84B
:10BD700010004D208DF811000120ADF814000020B6
:10BD80008DF813008DF812007F208DF816003B48C7
:10BD90000168CDF819108088ADF81D0000218DF8DC
:10BDA0001F10002010F0BAFE354A07CA01AB07C3C6
:10BDB00000208DF806008DF805008DF8040001A81C
:10BDC0000FF060FC044608942D4A07CA01AB07C374
:10BDD00099208DF80A0023208DF8060059208DF84F
:10BDE00005008DF8040001A80FF04CFC04460994EE
:10BDF00004A806F0ABF801210C2012F085F9C82147
:10BE0000192010F0B9FA012003F0D8FC04201949D8
:10BE1000487003E717484078042810D106F002FB69
:10BE200004460B2C03D1012002F03CFBF6E60FF098
:10BE3000FDFE18B9012002F035FBEFE600BF0E4809
:10BE4000006810B9012002F02DFB00BFE6E60000FB
:10BE5000682B0020642B00204170705F4755495FBC
:10BE60004368616E67655077644D656E7528290A71
:10BE7000000000006C2B0020702B00203C6900208B
:10BE80003C6A002038B50025002000908E480068EC
:10BE90008E490968884234D000BF8DA00CF088FB21
:10BEA00000BF8A4800688849086000208E494870B1
:10BEB000052006F07DFA0121142005F09FF80021ED
:10BEC000112005F09BF80021132005F097F804F0ED
:10BED0000FFF0020844948708449087000217B20AE
:10BEE00010F04AFA0020824908708249087082499D
:10BEF0000870824908708249087040F2DC5081491C
:10BF000008607948407800287AD104F025FD04467D
:10BF1000022C0DD1794801F079F8012003F0DCFB07
:10BF20000021062012F0F0F8032002F0BBFA38BD21
:10BF3000032C0DD1714801F069F8012002F0DEFFF9
:10BF40000021072012F0E0F8042002F0ABFAEEE73F
:10BF5000042C06D1694801F059F81B2002F0A2FA1E
:10BF6000E5E7052C06D1654801F050F81D2002F0E8
:10BF700099FADCE7012C07D15E480078002840D10F
:10BF800001205C4908703CE0002C3AD10020FEF70B
:10BF9000C5FC68B15648007850B901205449087072
:10BFA00002205249087000BF57A00CF001FB00BFEF
:10BFB00004F0BCFC48B101F003F9022821D002F0E2
:10BFC00007FE022002F09AFF1BE004F0B9FDC0B1A9
:10BFD00001F028F9022808D002F0FAFD022003F04F
:10BFE0007BFB0021012012F08FF84C48007E0128D5
:10BFF00007D1424801F00AF8172002F053FA96E7F9
:10C000003CE03A480078022832D101203B490870D0
:10C010004D21684600F08CFE0546012D11D100200F
:10C02000364908703149087096211B2010F0A4F998
:10C03000BDF80010282012F067F801202A49487046
:10C0400075E7681C40B900202C4908702749087022
:10C050000E2002F027FA6AE7A81C40B90020274901
:10C060000870224908702F2002F01CFA5FE703E0F5
:10C0700000202149087000BF00BF15E01A48407831
:10C08000012806D10FF0D2FD70B9012002F00AFAA2
:10C090004DE715484078022806D10FF0C7FD18B9C2
:10C0A0002F2002F0FFF942E71648006850B900BFA0
:10C0B0001BA00CF07DFA00BF104800F0A7FF2F2056
:10C0C00002F0F0F900BF32E7682B0020642B00205B
:10C0D0004170705F4755495F436865636B41646DAC
:10C0E000696E28290A0000006C2B0020912B00208B
:10C0F0008F2B0020902B0020792B0020812B0020FB
:10C10000602B0020702B002066696E6765722069C5
:10C110007320636865636B64650A0000C82D0020A6
:10C12000677569206F7074696F6E2074696D656FD3
:10C130007574210A0000000010B5FEF7D7FB28B186
:10C14000034890F8240008B9012010BD0020FCE746
:10C150001469002010B5114890F8240001281AD164
:10C16000FEF7C4FB40B900210C4880F824100020E1
:10C170000A490862012010BD0848006A58B9002029
:10C18000FEF776FC0021054880F8241000200349C2
:10C1900008620120EFE70020EDE7000014690020AD
:10C1A00010B50848C07B012809D10EF05BFE04469B
:10C1B00014F1030F01D1002010BD0120FCE7002085
:10C1C000FAE70000C82D00207047000010B5434872
:10C1D000006843490968884240D000BF41A00CF084
:10C1E000E7F900BF3E4800683C4908600020454927
:10C1F000487006F0DDF80121152004F0FFFE012152
:10C200000F2004F0FBFE0021132004F0F7FE0621AE
:10C210000020FDF7A7FD3C4890F84400401C3A4937
:10C2200081F8440001213848443013F0ABF8364817
:10C2300090F84400032804DA334890F845000328B6
:10C2400005DB4FF4C871892010F096F803E09621C1
:10C250001C2010F091F8C8202C490860294840782B
:10C2600018BB294890F84400052804DA264890F8BD
:10C27000450003281ADB2648806823498864042186
:10C280002148483013F07EF801F018F830B103204F
:10C29000204981F8C900072006F0ACF900211620DA
:10C2A00011F032FF02201749487002E001201549C1
:10C2B00048701648006870B90FF0B8FC00B110BDA6
:10C2C00010484078022803D1152002F0EBF8F6E779
:10C2D0002F2002F0E7F800BFF1E70000682B0020F4
:10C2E000642B00204170705F4755495F4368656368
:10C2F0006B46696E6765724572724D656E75282969
:10C300000A0000006C2B0020C82D0020702B00209C
:10C310003C6A00203A3D002010B549480068494970
:10C32000096888424CD000BF47A00CF041F900BF1B
:10C33000444800684249086000204A49487006F0B5
:10C3400037F80121152004F059FE01210F2004F0D7
:10C3500055FE0021132004F051FE06210020FDF7B8
:10C3600001FD414890F84400401C3F4981F84400D9
:10C3700001213D48443013F005F83B4890F8450052
:10C38000401C394981F8450001213748453012F0F9
:10C39000F9FF354890F84400032804DA324890F851
:10C3A0004500032805DB4FF4C87189200FF0E4FF36
:10C3B00003E096211C200FF0DFFFC8202B49086006
:10C3C0002848407818BB284890F84400052804DA2B
:10C3D000254890F8450003281ADB25488068224943
:10C3E000886404212048483012F0CCFF00F066FF3A
:10C3F00030B103201F4981F8C900072006F0FAF880
:10C400000021162011F080FE02201649487002E03B
:10C410000120144948701548006870B90FF006FCF7
:10C4200000B110BD0F484078022803D1152002F05A
:10C4300039F8F6E72F2002F035F800BFF1E70000E9
:10C44000682B0020642B00204170705F4755495FC6
:10C45000436865636B5077644572724D656E7528ED
:10C46000290A00006C2B0020C82D0020702B002012
:10C470003C6A00203A3D002010B50A48407E012861
:10C480000DD10020074948760F200EF0DAFD30B9B3
:10C4900000BF05A00CF08CF800BF012010BD0020EB
:10C4A000FCE700001469002077616B652062792049
:10C4B0006175746F20737461792064657465637449
:10C4C000210A000010B56948006869490968884276
:10C4D0003CD000BF67A00CF06BF800BF6448006858
:10C4E0006249086000206A49487005F061FF00F069
:10C4F00067FE0446012C01D0022C01D102F068FB3A
:10C500000021132004F07AFD012C14D100F09CFED0
:10C51000182810D1002010F019F80020FEF7A8FA12
:10C5200000218B200FF028FF5A48C07D18B95949C7
:10C53000C87D0FF0B9FF01200EF03CFD01200EF088
:10C5400033FD4FF496605449086000BF504840786E
:10C55000002872D1002400F033FE012803D000F03F
:10C560002FFE032803D10EF08DFE044602E00EF0EC
:10C5700063FE0446012C50D100F022FE032808D1AE
:10C5800046480078552808D1C82134200FF0F4FE21
:10C5900003E0C82134200FF0EFFE00F061FE30B35D
:10C5A00000203F4981F8A80000213D4880F8A910EB
:10C5B00080F8AA1080F8AB100020394981F8AC004F
:10C5C00000F0FEFD012807D1A120354981F8A70020
:10C5D000042006F00FF81CE000F0F2FD032807D15C
:10C5E000A2202F4981F8A700042006F003F810E0EC
:10C5F00000F0E6FD04280CD128480078662801D117
:10C60000A02000E0A320264981F8A700042005F01F
:10C61000F1FF01201E4948700EE0B4F1FF3F03D145
:10C620002F2001F03FFF10BD14F1020F04D118209C
:10C6300001F038FFF7E700E00AE0154840780128EC
:10C6400006D10FF0F3FA18B92F2001F02BFFEAE71B
:10C650001148006838B900BF12A00BF0A9FF00BF55
:10C660002F2001F01FFF00BFDDE70000682B002036
:10C67000642B00204170705F4755495F436C6F73B6
:10C6800065446F6F724D656E7528290A00000000C1
:10C690006C2B0020C82D0020702B0020BD2A00200C
:10C6A0003A3D0020677569206F7074696F6E207461
:10C6B000696D656F7574210A000000000020014952
:10C6C00008717047146900207047000010B59EB0D3
:10C6D0003948006839490968884219D000BF38A034
:10C6E0000BF066FF00BF3548006833490860002042
:10C6F0003A49487005F05CFE0121142004F07EFCEC
:10C700000021132004F07AFC40F6B8303449086068
:10C7100032484078A0B944210DA8FCF79BFE0420C4
:10C720008DF83400342211A96846FCF76CFE0DA880
:10C730000FC8FDF747FA0120284948701EB010BD08
:10C740002648407801281ED11DA8FDF711FA04469D
:10C75000022C0CD1962117200FF00EFEBDF874109C
:10C76000262011F0D1FC02201C4948700AE0032C5D
:10C7700001D0042C06D1962118200FF0FDFD0220D7
:10C78000164948700AE015484078022806D10FF093
:10C790004DFA18B90A2001F085FECFE7104800686D
:10C7A00038B900BF0FA00BF003FF00BF0A2001F053
:10C7B00079FE00BFC2E70000682B0020642B002038
:10C7C0004170705F4755495F44656C46696E6765A7
:10C7D000724D656E7528290A000000006C2B002040
:10C7E000702B0020677569206F7074696F6E2074FC
:10C7F000696D656F7574210A0000000010B5374837
:10C8000000683749096888423CD000BF35A00BF06A
:10C81000CFFE00BF32480068304908603848C07D0C
:10C8200010B903200FF040FE00203649487005F093
:10C83000BFFD0021142004F0E1FB0121152004F0CC
:10C84000DDFB01210F2004F0D9FB0021132004F0AF
:10C85000D5FB00210846FDF785FA40F2DC516B203C
:10C860000FF08AFD00F02AFD30B10420264981F83E
:10C87000C900072005F0BEFE41F270702349086030
:10C88000234908601F484078B8B90FF0CFF950B974
:10C8900000218B200FF070FD01200EF0E1FC2F2015
:10C8A00001F000FE10BD1A480068A0B901200EF08A
:10C8B000D7FC2F2001F0F6FD0DE01248407801284A
:10C8C00009D1FFF76DFC012805D001200EF0C8FC4E
:10C8D0002F2001F0E7FD00BFE4E70000682B0020F7
:10C8E000642B00204170705F4755495F4465706C50
:10C8F0006F795761726D4D656E7528290A000000C9
:10C90000C82D00206C2B00203A3D0020702B002009
:10C91000742B002010B5194800681949096888422D
:10C9200021D000BF17A00BF043FE00BF14480068E1
:10C930001249086000201A49487005F039FD0021AD
:10C94000142004F05BFB0121182004F057FB0121A7
:10C950000F2004F053FB00210846FDF703FA4FF4C3
:10C96000FA70104908600E48407800B100BF0D48C9
:10C97000006810B92F2001F095FD10BD682B002034
:10C98000642B00204170705F4755495F45657072A8
:10C990006F6D4572726F724D656E7528290A0000C1
:10C9A0006C2B0020702B002010B5434800684349D1
:10C9B0000968884221D000BF41A00BF0F9FD00BFFB
:10C9C0003E4800683C49086000204449487005F032
:10C9D000EFFC0021142004F011FB0021112004F0D1
:10C9E0000DFB1A210020FDF7BDF9002139200FF0C1
:10C9F000C3FC41F270703A4908603848407870BB17
:10CA000008F06CF90446012C17D10121002004F034
:10CA1000F5FA01210A2004F0F1FA01210B2004F0BB
:10CA2000EDFA002139200FF0A7FC01202B494870B6
:10CA30004FF496702B49086010E0022C0ED10121B2
:10CA4000092004F0DBFA00216B200FF095FC022096
:10CA5000224948704FF49670224908601EE0FFE7B3
:10CA60001E48407801280AD11E480068B0B900214C
:10CA70008B200FF081FC2F2001F014FD10BD174812
:10CA8000407802280AD11748006838B900218B2065
:10CA90000FF072FC2F2001F005FDEFE71048006851
:10CAA00038B900BF10A00BF083FD00BF2F2001F0AC
:10CAB000F9FC00BFE2E70000682B0020642B002097
:10CAC0004170705F4755495F4572726F7243686588
:10CAD000636B4D656E7528290A0000006C2B0020E1
:10CAE000702B0020742B0020677569206F707469AB
:10CAF0006F6E2074696D656F7574210A0000000007
:10CB000010B56048006860490968884255D000BF88
:10CB10005EA00BF04DFD00BF5B48006859490860FE
:10CB20006248C07D10B903200FF0BEFC00206049B0
:10CB3000487005F03DFC0EF0D7F920B101210C2022
:10CB400004F05CFA03E001210D2004F057FA002103
:10CB5000112004F053FA0021142004F04FFA0121AF
:10CB6000152004F04BFA01210F2004F047FA0021B0
:10CB7000132004F043FA01210020FDF7F3F84FF4ED
:10CB8000967182200FF0F8FB0021032011F0BCFA0F
:10CB900000F094FB30B10220464981F8C90007201B
:10CBA00005F028FD002044490870444908704449B4
:10CBB000087040F21450434908603D48407800280E
:10CBC0005DD13D480EF010FB012810D1042002F089
:10CBD00095F9042001F066FC0021052011F094FA7B
:10CBE0003248C07D10B900200FF05EFC10BD0FF080
:10CBF0001DF8002843D132480078022809DB2B4871
:10CC0000C07D10B900200FF04FFC2F2001F04AFC2E
:10CC1000ECE70024294800780A2190FBF1F201FB9F
:10CC2000120026490870087800EBD0714910A0EB7B
:10CC3000410109B90A2418E02049087800EBD071B5
:10CC40004910A0EB410101290FD178241B4800783D
:10CC500009280AD14FF496741948007800B11E24AF
:10CC600017480078401C1649087014480078401C8A
:10CC700012490870214686200FF07EFB00BF00BFDE
:10CC8000B4E70000682B0020642B00204170705F27
:10CC90004755495F46616C73654C6F636B576172B2
:10CCA0006D4D656E7528290A00000000C82D002012
:10CCB0006C2B00203A3D0020982B0020992B00205F
:10CCC0009A2B0020702B002010B500201749087007
:10CCD00048708876C8760877487708718870C87079
:10CCE00008764876487188603C20C8600020087447
:10CCF00002210E4814300BF0EFFB0C48808A4FF4F1
:10CD0000E15190FBF1F201FB1200084988820021F9
:10CD1000064880F82410002004490862488288757B
:10CD2000C875302001F0BEFB10BD00001469002062
:10CD300070B5AEB006460D466A48007820B10128AD
:10CD40001DD0022875D12AE06748007838B9012043
:10CD50006449087000BF65A00BF02AFC0EE0624831
:10CD6000007801280AD100BF66A00BF021FC00BFAB
:10CD700000205D49087002205A490870AEE0032087
:10CD80008DF87400342221A96846FCF73CFB1DA8ED
:10CD90000FC8FCF717FF0220524908709EE030468A
:10CDA000FCF7E6FE0446022C50D15C48B0F8500077
:10CDB0004FF6FE71884204DD00205849A1F850006A
:10CDC00006E05648B0F85000401C5449A1F8500005
:10CDD00000BF5248B0F8501051A00BF0E9FB00BF63
:10CDE00002214E48503012F0CDFA412D0CD100BF37
:10CDF0005AA00BF0DDFB00BFFCF78AFF0020394989
:10CE0000087001202EB070BD30880DA9FCF75EFEC1
:10CE100080B19DF83700A8420CD100BF56A00BF09E
:10CE2000C7FB00BFFCF774FF00202E4908700120EB
:10CE3000E8E752E000BF57A00BF0BAFB00BFFCF7D9
:10CE400067FF002027490870401EDBE7032C38D11C
:10CE500000F0EEF94AF2B75188420BD100BF54A05E
:10CE60000BF0A6FB00BFFCF753FF00201D49087024
:10CE70000120C7E72948B0F852004FF6FE718842FA
:10CE800004DD00202549A1F8520006E02348B0F84F
:10CE90005200401C2149A1F8520000BF1F48B0F8C1
:10CEA00052104CA00BF084FB00BF02211B485230F3
:10CEB00012F068FAFCF72CFF00200A490870401EA7
:10CEC000A0E7052C01D0042C06D1FCF721FF00209F
:10CED00004490870801E95E700E000BF00BF0020F5
:10CEE00090E70000792B0020602B002066696E67B8
:10CEF000657220636865636B2061667465722120CA
:10CF00000A00000066696E67657220636865636B7E
:10CF1000206265666F7221200A000000C82D002083
:10CF20002D2D2D2D2D2D2D2D2D53797374656D5394
:10CF30006574696E672E46696E6765724F725665D5
:10CF4000696E556E6C6F636B537563636573734382
:10CF50006E74203D202564200A00000066696E671B
:10CF6000657220636865636B20697320616C6C2057
:10CF70006F6B21200A00000066696E67657220638E
:10CF80006865636B206973206C696D697421200A80
:10CF90000000000066696E67657220636865636BF8
:10CFA000206973206572726F7221200A00000000F0
:10CFB00066696E67657220636865636B20697320BC
:10CFC0006F6B20617420747279206D6F646521200D
:10CFD0000A0000002D2D2D2D2D2D2D2D2D53797373
:10CFE00074656D536574696E672E46696E67657208
:10CFF0004F725665696E556E6C6F636B4661696CF6
:10D00000436E74203D202564200A000010B50446BC
:10D01000207800B910BD2078012808D100202070A8
:10D02000FCF776FE00BF03A00BF0C2FA00BF00BF02
:10D03000F0E700004170705F4755495F46696E67D1
:10D040006572436865636B53746F7028290A00002A
:10D0500010B53E4800683E490968884241D000BF8B
:10D060003CA00BF0A5FA00BF3948006837490860BA
:10D070004048C07D10B903200FF016FA00203E4949
:10D08000487005F095F90021112003F0B7FF002149
:10D09000142003F0B3FF0121152003F0AFFF01219D
:10D0A0000F2003F0ABFF01210020FCF75BFE4FF4E3
:10D0B000967182200FF060F90021032011F024F80E
:10D0C00000F0FCF830B108202C4981F8C900072095
:10D0D00005F090FA00202A4908704FF47A70294927
:10D0E00008602548407810BB25480EF07DF80128DF
:10D0F00010D1042001F002FF042001F0D3F9002137
:10D10000052011F001F81B48C07D10B900200FF078
:10D11000CBF910BD0EF08AFD48B91648C07D10B994
:10D1200000200FF0C1F92F2001F0BCF9F1E71548FC
:10D13000006848B90F48C07D10B900200FF0B4F95D
:10D140002F2001F0AFF9E4E700BFE2E7682B0020F1
:10D15000642B00204170705F4755495F466F7267CE
:10D1600065744C6F636B5761726D4D656E752829E0
:10D170000A000000C82D00206C2B00203A3D002042
:10D180009B2B0020702B002010B5084800785528F4
:10D190000AD10748807838B900F00CF820B104486B
:10D1A0000079012800D110BD0020FCE7BD2A002035
:10D1B000146900200148C07E70470000C82D00207F
:10D1C0000148C07E70470000146900200148807843
:10D1D000704700006C2B00200021094890F84000A7
:10D1E000052800D107E0064890F84000552801D1F5
:10D1F000012100E0002109B1012070470020FCE777
:10D20000C82D002008B50348407800909DF8001014
:10D21000084608BDC82D002001484079704700002D
:10D22000146900200148807E7047000014690020C6
:10D230000148008A70470000C82D0020014840784E
:10D2400070470000146900200148007F704700000B
:10D25000146900200148007870470000802B0020EE
:10D2600010B50C48C07B01280DD10A48807D0128EB
:10D2700009D10DF0F7FD044614F1030F01D1002090
:10D2800010BD0120FCE700BF03A00BF091F900BF27
:10D290000020F5E7C82D00204170705F4755495FB9
:10D2A0004765745769666955706C6F61645377534D
:10D2B00074732066616C73650A00000010B508483D
:10D2C000C07B012809D10DF0CDFD044614F1030FF8
:10D2D00001D1002010BD0120FCE70020FAE700008A
:10D2E000C82D002070B595480068954909688842A6
:10D2F00056D000BF93A00BF05BF900BF90480068C8
:10D300008E49086000209649487005F051F80021C8
:10D31000142003F073FE0121162003F06FFE00219C
:10D32000112003F06BFE0021132003F067FE03F0D1
:10D33000DFFC0220FCF7BCFB00208A490870FCF7E8
:10D34000FBFC00BF8848016888A00BF031F900BFE2
:10D350000AF0ECFD90B900BF89A00BF029F900BFDD
:10D360000120FCF7A5FB01207E4908700121022065
:10D37000FCF786FB002135200EF0FEFF00208549DA
:10D3800008701A21FCF7EEFC41F2707082490860C7
:10D3900000208249087000BF81A00BF009F900BF8E
:10D3A0006F484078002855D10AF0C0FD28B101200F
:10D3B00078490870052080490870FCF76DFBFCF780
:10D3C00059FB05280BD10020FCF772FB0B2002F063
:10D3D00083F9FCF79DFC032001F064F870BDFCF7B5
:10D3E00049FB042808D1FCF793FC0020FCF760FB04
:10D3F0001A2001F057F8F1E7FCF73CFB07280BD1A6
:10D400000020FCF755FB0C2002F066F9FCF780FCCD
:10D41000032001F047F8E1E7FCF72CFB062808D1D0
:10D420000020FCF745FBFCF773FC1A2001F03AF8EA
:10D43000D4E7FCF71FFB032856D15848007850B9B1
:10D44000012004F0B5FF0121142003F0D7FD0120D5
:10D450005249087048E051480078012844D103F04F
:10D460007BFA0546022D0DD10020FCF721FB01209F
:10D4700002F032F90021062010F046FE032001F0F0
:10D4800011F8ABE7032D0DD10020FCF711FB0120B3
:10D4900001F034FD0021072010F036FE042001F0D9
:10D4A00001F89BE704F0BEFF04460B2C0BD100BF34
:10D4B00042A00BF07DF800BF0020FCF7F9FA2F2006
:10D4C00000F0F0FF8AE70D2C0DD100BF40A00BF05B
:10D4D0006FF800BF01200EF053FB00221146FF2021
:10D4E00007F0ECFD7AE700BF0AF020FDA0B929485B
:10D4F0000078012810D11B48007868B92E480078C0
:10D5000050B9002023490870FCF7D2FAFCF700FC60
:10D510002F2000F0C7FF61E71F48006860B900BF17
:10D5200030A00BF045F800BF0020FCF7C1FAFCF773
:10D53000EFFB2F2000F0B6FF00BF4FE7682B002065
:10D54000642B00204170705F4755495F476F746FCF
:10D550004170704D6F64656C4D656E7528290A00C9
:10D560006C2B00209F2B0020982A00204150505FF8
:10D57000494432496E6974203D25640A0000000068
:10D58000426C6520636F6E6E656374206167696EBF
:10D59000210A00009E2B0020702B0020A02B0020D1
:10D5A0006170702067756920696E697420697320E5
:10D5B0006F6B210A000000007A2B0020746F7563E6
:10D5C00068206B6579206973206261636B210A00B2
:10D5D000746F756368206B65792069732062656C70
:10D5E0006C210A00677569206F7074696F6E207412
:10D5F000696D656F7574210A0000000010B515484B
:10D60000006815490968884219D000BF13A00AF0C4
:10D61000CFFF00BF104800680E490860002016497F
:10D62000487004F0C5FE0021132003F0E7FC1A2126
:10D630000020FCF797FB4FF49660104908600E48F5
:10D64000407800B100BF0D48006810B9012000F01B
:10D6500029FF10BD682B0020642B00204170705FF3
:10D660004755495F476F746F4F74614D6F64656CC8
:10D670004D656E7528290A006C2B0020702B002048
:10D6800010B5A1480068A1490968884232D000BF9E
:10D690009FA00AF08DFF00BF9C4800689A4908606F
:10D6A0000020A3494870092004F082FE00211420C4
:10D6B00003F0A4FC00210D2003F0A0FC00211120A8
:10D6C00003F09CFC0021132003F098FC0DF02AFECF
:10D6D000012801D101F07CFA4FF47A709549086075
:10D6E0000A209549086000209449087002F06AF900
:10D6F00010F0AEFA8E48407850B90EF097FA18B193
:10D700008D480068002802D1012089494870F8E05E
:10D710008748407801287CD1FEF71CFD58B100BF36
:10D7200087A00AF045FF00BF00200EF00FFF002188
:10D730008B200EF021FEFFF727FD68B1042001F0D9
:10D74000DDFB0021052010F0DFFC042000F0AAFE24
:10D750000A2002F037F910BD78480DF045FD012888
:10D760000FD1042001F0CAFB0021052010F0CCFCF1
:10D77000042000F097FE01F02BFA0A2002F022F9B3
:10D78000E9E700200DF06CFD01281AD100BF73A05D
:10D790000AF00EFF00BF022001F09EFF00210120D1
:10D7A00010F0B2FC7348007E01281FD100BF72A0A8
:10D7B0000AF0FEFE00BF0C2002F004F911F0D4FCC8
:10D7C000C9E77348007E012802D0FEF755FE68B114
:10D7D00000206F49087600BF6EA00AF0E9FE00BF86
:10D7E0000B2002F0EFF811F0BFFCB4E7FCF7DEFA13
:10D7F00001288CD1002003F089F958B100BF6CA03A
:10D800000AF0D6FE00BF012002F0DCF811F0ACFCFB
:10D81000A1E712E0012003F079F950B100BF6AA03E
:10D820000AF0C6FE00BF022002F0CCF811F09CFC0A
:10D8300091E702203E4948708DE73D484078022834
:10D840000CD10DF041F918B10A203949487058E05F
:10D85000082002F0B7F811F087FC52E03448407815
:10D860000A2816D1FDF742F878B10DF057FB0128D0
:10D870000BD100BF5AA00AF09BFE00BF142000F09D
:10D8800011FE072002F09EF865E703202849487042
:10D8900037E02748407803280ED1FCF766FA11F0EC
:10D8A000EDFA012002F088F804202149487000BFF9
:10D8B00051A00AF07DFE24E01D48407804281AD1CA
:10D8C00012E00CF0C0FD0AF031FB68B1FFF7BCFCC0
:10D8D00050B9002002F070F80D2002F073F800BF7C
:10D8E00052A00AF065FE00BFFFF7A8FC0028E8D1AF
:10D8F00011F03AFC2FE70E484078052801D111F0CD
:10D9000033FC00BF27E70000682B0020642B0020B9
:10D910004170705F4755495F476F746F536C656521
:10D92000704D6F64656C4D656E7528290A000000A6
:10D930006C2B0020702B0020742B0020A72B0020C4
:10D94000616C726D20627574746F6E2069732072E1
:10D9500065636F76657279210A0000006175746FE6
:10D96000206C6F636B2070757320646F6F72210A77
:10D9700000000000C82D0020627265616B20627992
:10D9800020646566656E64207761726D210A00000F
:10D990001469002077616B65206279206175746F6E
:10D9A000207374617920646574656374210A0000D2
:10D9B000627265616B206279206F70656E2062759E
:10D9C00074746F6E210A0000627265616B20627967
:10D9D00020636C6F736520627574746F6E210A002A
:10D9E000736C65657020627265616B20627920617D
:10D9F0006C61726D210A00002F2A2D2D2D2D2D2DE9
:10DA00002D2D2D2D2D2D2D2D2D736C65657070698F
:10DA10006E672D2D2D2D2D2D2D2D2D2D2D2D2D2DBB
:10DA20002D2D2D2D2D2D2A2F0D0A000077616B65D0
:10DA300020757020736F7572636520697320626C46
:10DA400065210A002DE9F04387B00026182101A8BE
:10DA5000FBF700FDF3480068F349096888427DD070
:10DA600000BFF2A00AF0A4FD00BF00BFF5480168A6
:10DA7000F5A00AF09DFD00BF00BFF9480168F9A0BC
:10DA80000AF096FD00BFE8480068E64908600020FB
:10DA9000FA494870FFF7D8FB162814D1E948006806
:10DAA000C82810D801200EF06BF800BFF4A00AF0CF
:10DAB0007FFD00BFFEF774FB012804D10022114650
:10DAC000FF2007F0FBFAF3480078012804D1012178
:10DAD0000D2003F093FA03E001210C2003F08EFAED
:10DAE000002004F065FC0121142003F087FA0121D5
:10DAF000112003F083FA0121132003F07FFA03F0D1
:10DB0000F7F80020E4490870FFF78CFB0746FFF7A1
:10DB100057FB0546012F1DD0022F1BD0012D19D018
:10DB2000022D17D0FFF790FB0E2813D0FFF78CFBC8
:10DB30000F280FD0FFF788FB10280BD0FFF784FBCE
:10DB4000012807D0FFF780FB022803D0FFF77CFBFA
:10DB5000162809D10020D049087000E040E000BF3D
:10DB6000CEA00AF025FD17E0FFF736FB40B10020FC
:10DB7000FCF7D4FE80B900217A200EF0FDFB0BE00B
:10DB80000020FCF7CBFE20B9002147200EF0F4FB6B
:10DB900002E00020C04908700020C5490870C5494E
:10DBA0000870C5490870C5490870C5490870C5495D
:10DBB0000870C5490880C5490880C5490870C5482E
:10DBC0000078012800D108700020C3490870C349BB
:10DBD0000870C34908704FF49660C249086000BFDE
:10DBE000A648407800287DD19D480068642807D366
:10DBF000B048007820B90120AE49087004F0D8FB85
:10DC000002F0AAFE0546022D0FD1B148FFF7FEF93A
:10DC1000012001F061FD0021062010F075FA0320BB
:10DC200000F040FC07B0BDE8F083032D0DD1A848FB
:10DC3000FFF7ECF9012001F061F90021072010F055
:10DC400063FA042000F02EFCECE7042D06D1A04876
:10DC5000FFF7DCF91B2000F025FCE3E7052D06D1DA
:10DC60009B48FFF7D3F91D2000F01CFCDAE7062DD6
:10DC700002D1FFF7DDFA8CE1012DFCD0002DFAD1A5
:10DC8000FEF768FA90B100BF97A00AF091FC00BFC0
:10DC900000200EF05BFC00218B200EF06DFB9948FC
:10DCA000C07D18B99749C87D0EF0FEFBFEF744FA17
:10DCB00030B18748FFF7AAF9142000F0F3FBB1E771
:10DCC0000020FCF72BFE68B3FFF786FAE0B1FFF700
:10DCD00099FA00909DF80000C0F3400030B99DF81B
:10DCE000000000E0A2E3C0F34010D8B17048007813
:10DCF000C0B901206E49087002206749087000BF52
:10DD000081A00AF055FC0DE06948007850B9012067
:10DD10006749087002206049087000BF7AA00AF0C5
:10DD200047FC00BF0AF002F930B16948FFF76EF90D
:10DD30001D2000F0B7FB75E702F0F8FD68B1FFF7B2
:10DD40003FFA022846D000F043FF022001F0D6F847
:10DD50000021022010F0D8F93CE002F0F1FEB8B149
:10DD6000FFF760FA022808D000F032FF022001F02D
:10DD7000B3FC0021012010F0C7F96248007E0128A1
:10DD800028D15348FFF742F9172000F08BFB49E7F1
:10DD900000200DF065FA01281CD100BF5FA00AF039
:10DDA00007FC00BFFFF73EFA022808D000F010FF82
:10DDB000022001F091FC0021012010F0A5F951484A
:10DDC000007E012806D14248FFF720F9172000F015
:10DDD00069FB27E7FFF7D8F968B13D48FFF716F967
:10DDE000042001F08BF80021052010F08DF90420AB
:10DDF00000F058FB16E70DF03CFA012806D1344834
:10DE0000FFF704F9182000F04DFB0BE70DF062FA64
:10DE1000012806D12E48FFF7F9F8192000F042FB3F
:10DE200000E787E0682B0020642B00204170705FC2
:10DE30004755495F4D61696E4465736B4D656E75FD
:10DE400028290A00982A002053797374656D20737D
:10DE5000746172742074696D65203D25640A000048
:10DE60009C2A002053797374656D20686F6C642060
:10DE700074696D65203D25640A0000006C2B00204C
:10DE800042656C6C20697320776F726B696E6721D5
:10DE90000A000000A72A00208E2B00206F70656EFC
:10DEA00020646F6F7220696E20726F6F6D210A009F
:10DEB000882B0020892B00208A2B0020792B002022
:10DEC0008B2B00208C2B0020842B0020862B002005
:10DED000812B0020602B00208D2B0020822B002026
:10DEE000612B0020702B0020616C726D20627574B4
:10DEF000746F6E206973207265636F766572792125
:10DF00000A000000C82D002066696E6765722069EE
:10DF10007320636865636B64650A00006175746FE4
:10DF2000206C6F636B2070757320646F6F72210AB1
:10DF3000000000000DF0DEF9012806D1FC48FFF7D3
:10DF400065F8182000F0AEFA6CE6FA480DF04CF9CE
:10DF500001280DD1F648FFF759F8042000F0CEFF54
:10DF60000021052010F0D0F8042000F09BFA59E6BB
:10DF7000F148007E012802D0FEF77EFA48B1002069
:10DF8000ED490876EA48FFF741F8162000F08AFAD2
:10DF900048E6EA480078022874D10120E449087074
:10DFA0004121E748FEF7C4FE0646012E6CD100BFB2
:10DFB000E4480168E4A00AF0FBFA00BF0020DC4955
:10DFC00008700120E74908700020DC490870FFF75D
:10DFD00003F968B1FFF716F900909DF8000000F012
:10DFE0000100002866D0002141200EF0C5F961E053
:10DFF000082001F071FBFFF733F9C0B10B20DA49BB
:10E0000081F8A700002081F8A8000021D64880F8F8
:10E01000A91080F8AA10CA480178D34880F8AB103C
:10E020000020D14981F8AC000120D0490870C448D3
:10E030000188272010F068F8CD48B0F85000001291
:10E04000C94981F8AD00CA4890F85010C64880F818
:10E05000AE10C748B0F852000012C34981F8AF00B3
:10E06000C34890F85210C04880F8B01000BFC048B4
:10E07000B0F85210BFA00AF09BFA00BF032000F0D6
:10E0800011FACFE517E0FFE7701C40B90020A8495E
:10E090000870AA4908700E2000F004FAC2E5B01C0E
:10E0A00040B90020A2490870A44908702F2000F050
:10E0B000F9F9B7E503E00020BD49087000BF00BFD3
:10E0C00004F090F9022808DBFFF786F828B9B94870
:10E0D000007810B90120B74908700127B846FFF74A
:10E0E0007BF8B0B3FFF78EF800909DF8000000F0C9
:10E0F0000100D8B19DF80000C0F3C00020B99DF820
:10E100000000C0F3801010B1AB48077814E09DF810
:10E110000000C0F3400020B99DF80000C0F340109B
:10E1200050B19048077890F8008005E09DF8000015
:10E1300000F0010000B900279DF80000C0F3C00006
:10E1400020B99DF80000C0F3801018B19A4890F8EB
:10E1500000800CE09DF80000C0F3400020B99DF85D
:10E160000000C0F3401010B17E4890F8008001AA72
:10E170004146384600F0D6FB0446012C03D0082C5B
:10E1800001D0092C72D16A48FEF740FF4FF0000918
:10E19000FFF766F88146B9F1000F78D0FFF71CF859
:10E1A000F0B385480078012805D1844801786E488D
:10E1B00080F8A9100FE06B48007801280BD1562099
:10E1C000694981F8A700002081F8A8005C4801781F
:10E1D000654880F8A910012C07D10021624880F819
:10E1E000AA10012180F8AB1012E0082C07D1002101
:10E1F0005D4880F8AA10022180F8AB1008E0092CD5
:10E2000006D1F021584880F8AA10032180F8AB10FD
:10E210000020554981F8AC0001205449087036E0CF
:10E22000FFE70220504981F8A700002081F8A800EC
:10E2300000214D4880F8A910012C09D180F8AA10BE
:10E24000012180F8AB100020474981F8AC001BE0A9
:10E25000082C0CD10021444880F8AA10022180F833
:10E26000AB100020404981F8AC000DE030E0092CF3
:10E270000AD1F0213C4880F8AA10032180F8AB10A5
:10E28000F020394981F8AC00012038490870012C90
:10E2900007D1032001F020FA01210D200FF034FFF7
:10E2A00012E0082C07D1092001F016FA02210920FA
:10E2B0000FF02AFF08E0092C06D10A2001F00CFA21
:10E2C000032111200FF020FF032000F0EBF8A9E458
:10E2D000B4F1FF3F06D11648FEF798FE112000F07A
:10E2E000E1F89FE4022C09D10EF036F9F0B910489C
:10E2F000FEF78CFE272000F0D5F893E4032C09D11B
:10E300000EF02AF990B90A48FEF780FE2E2000F0A0
:10E31000C9F887E4042C53D10EF01EF930B9044833
:10E32000FEF774FE022000F0BDF87BE47DE0000003
:10E33000812B00208D2B0020146900208E2B0020C3
:10E34000862B0020982A002066696E67657220631C
:10E350006865636B2073756363657373203D256423
:10E360000A0000008C2B00203A3D0020612B002089
:10E37000C82D00202D2D2D2D2D2D2D2D2D2D2D2D6C
:10E3800053797374656D536574696E672E46696E53
:10E390006765724F725665696E556E6C6F636B463A
:10E3A00061696C436E74203D2025640A0000000002
:10E3B000792B00208A2B00208B2B0020842B00201F
:10E3C000052C0DD12748FEF721FE032000F096FD15
:10E3D000002104200FF098FE042000F063F821E4EF
:10E3E000062C09D10EF0B8F8F8B91E48FEF70EFE5B
:10E3F0000A2000F057F815E4072C16D11A480078C7
:10E4000038B901201849087000BF18A00AF0D0F8E8
:10E4100000BF01200DF0B4FBFDF7C2FE012804D1BE
:10E4200000221146FF2006F049FE0AE01548407818
:10E43000012806D10DF0FAFB18B92F2000F032F8B0
:10E440000BE41148006850B900BF10A00AF0B0F802
:10E4500000BF0448FEF7DAFD2F2000F023F800BFCC
:10E4600004E40000812B00208A2B00206661636594
:10E4700020627265616B2062792062656C6C210A92
:10E48000000000006C2B0020702B002067756920B5
:10E490006F7074696F6E2074696D656F7574210A91
:10E4A0000000000001498870704700006C2B0020BC
:10E4B00010B5FEF7CFFE012804D0022816D003289D
:10E4C00027D123E010F0E2FB01280ED1022001F059
:10E4D0007FFA00BF1048016810A00AF069F800BF79
:10E4E00000BF13A00AF064F800BF13E015480068ED
:10E4F0000F280AD3FEF7A8FE182803D01249C87DBA
:10E500000DF0D2FF032001F063FA03E000F086FB78
:10E5100000E000BF00BF10BD982A0020537973743B
:10E52000656D53656C66436865636B3D25640A00E1
:10E5300053797374656D53656C66436865636B28C6
:10E54000290A00009C2A0020C82D002070470000E6
:10E5500010B5D8480068D8490968884270D000BF13
:10E56000D6A00AF025F800BFD3480068D14908605A
:10E570000020D849487003F01BFFFEF753FE012826
:10E5800008D10021102002F039FD0121142002F0F1
:10E5900035FD17E00121102002F030FD002114208C
:10E5A00002F02CFD01210A2002F028FDCA48007E5D
:10E5B000012807D10020C84908760121C648183033
:10E5C00010F0E0FE0021132002F018FDFEF73CFEE3
:10E5D000182810D100200DF0B9FF0020FCF748FAF0
:10E5E00000218B200DF0C8FEBB48C07D18B9BA4988
:10E5F000C87D0DF059FF00F0EBFA01200CF0DAFCB9
:10E6000001200CF0D1FCB5480078012805D100208C
:10E61000B2490870042003F0EDFF0020B0490870F3
:10E62000B0490870B0490870B0490870B049087026
:10E63000B049087001F038FB41F27070AE490860D3
:10E64000A4484078002852D10CF058FE0446012C12
:10E6500015D1FEF7AFFDA949887001209D4948708A
:10E66000A7480078552841D19B48007E01283DD11C
:10E67000FEF7D8FD012839D19A49087010BD022C47
:10E6800025D1A0480078FE2804DA9E480078401C76
:10E690009C490870962133200DF06EFE9848007852
:10E6A00066280AD18C48007E012806D1FEF7BAFD03
:10E6B000012802D18B490870E0E7FEF7B9FD4AF264
:10E6C000B751884212D1012087490870D6E7032C40
:10E6D00005D10120854908707E49487006E0B4F1F3
:10E6E000FF3F03D12F20FFF7DDFEC7E700BF7C48C7
:10E6F000007840BB7B480078012830D18048007802
:10E70000662821D10DF092FAE8B90021142002F018
:10E7100075FC0121152002F071FC01210F2002F08F
:10E720006DFC40F2DC516B200DF026FEFEF7C6FDBD
:10E7300030B10420744981F8C900072003F05AFF62
:10E7400001206749087019E06D480078552815D1F7
:10E750000DF06CFA90B91720FFF7A4FE8EE762481F
:10E76000007801280AD10DF061FA38B94FF4C87168
:10E7700079200DF001FE0120594908705548407874
:10E7800001282DD157480078012806D15448007837
:10E7900010B102204F49487070E7534800780128B3
:10E7A00006D14F48007810B107204A49487065E704
:10E7B0000DF03CFA00B161E74C480078012803D124
:10E7C0000420FFF76FFE59E7FEF72CFD012803D167
:10E7D0000020FFF767FE51E72F20FFF763FE4DE7AC
:10E7E0003C484078022824D141480CF0FDFC012827
:10E7F00001D1404908703D480078012803D03D48C8
:10E80000007801280ED10CF017FD0446012C05D02C
:10E81000B4F1FF3F02D014F1020F02D103202D49C1
:10E82000487039E00DF002FA88BB0320294948708E
:10E8300032E02848407803280DD10DF0F7F930BBBD
:10E8400001200CF00DFD00218B200DF095FD2F20F7
:10E85000FFF728FE12E71F48407804281CD01D4807
:10E860004078072818D10DF0E1F900B106E71F48FC
:10E870000078012803D10420FFF714FEFEE6FEF71E
:10E88000D1FC012804D10020FFF70CFEF6E603E0DE
:10E890002F20FFF707FEF1E61748006838B900BFE0
:10E8A0001AA009F085FE00BF2F20FFF7FBFD00BF77
:10E8B000E4E60000682B0020642B00204170705FAC
:10E8C0004755495F4F70656E446F6F724D656E7549
:10E8D00028290A006C2B0020C82D0020612B002065
:10E8E000922B0020932B0020942B0020952B0020AE
:10E8F000962B0020972B0020702B002014690020FD
:10E90000BD2A0020BC2A00203A3D002067756920FE
:10E910006F7074696F6E2074696D656F7574210A0C
:10E92000000000002DE9F0438FB006460F469146E7
:10E9300000200E90142109A8FAF78CFD142104A8D8
:10E94000FAF788FD03F06EFD04460A2C76D103F039
:10E9500049FD05460EA909A803F04AFD8048007844
:10E96000012813D100207E4908707E4800780528D0
:10E9700004DA7C480078401C7A4908700121142090
:10E9800002F03CFB05200FB0BDE8F08316B90FB9CB
:10E990000020F8E7042D17DBFEF74AFC4AF2B751D6
:10E9A000884211D170A0006803909DF8382009A911
:10E9B00004A80EF00BF8042203A904A8FAF77AFDC4
:10E9C00008B90620DFE700BF062D6FDB072D12D147
:10E9D00066A103C9CDE902019DF8382009A904A860
:10E9E0000DF0F4FF072202A904A8FAF763FD08B9A5
:10E9F0000220C8E71AE00A2D18D15EA207CA01ABAF
:10EA000007C39DF8382009A904A80DF0DFFF0A22EA
:10EA100001A904A8FAF74EFD38B9FEF709FC4AF23D
:10EA2000B751884201D10320ADE700BFFEF700FCDB
:10EA30004AF2B751884202D10020A4E750E000BF5B
:10EA40004FA009F0B5FD00BF4FF000080BE000BF7C
:10EA500009A810F808104EA009F0AAFD00BF08F19F
:10EA6000010000F0FF089DF838008045EFDB00BF93
:10EA700048A009F09DFD00BF9DF8382009A904A811
:10EA80000DF0A4FF002004A99DF838208854012E21
:10EA90000DD100BF40A009F08BFD00BF04AA49467C
:10EAA000412003F0C1FB012801D16CE717E0012FE1
:10EAB00012D100BF3DA009F07BFD00BF04A803F008
:10EAC0009AFB012801D109205DE704A803F09FFB10
:10EAD000012801D1082056E74FF0FF3053E73CE012
