:0200000400807A
:20E0000005000101932700004C3D00006D67DEF13E33E811B1024D2DF40CDE0100E4800039
:20E0200000E480000000000000E0800000000000000000000000000000000000000000001C
:20E040000000000000000000000000000000000000000000000000000000000000000000C0
:20E06000212000085043461E73646B2323232323000000000000000000000000000000006F
:20E08000000000000000000000000000000000000000000000000000000000000000000080
:20E0A000000000000000000000000000000000000000000000000000000000000000000060
:20E0C000000000000000000000000000000000000000000000000000000000000000000040
:20E0E000000000000000000000000000000000000000000000000000000000000000000020
:20E100000000000000000000000000000000000000000000000000000000000000000000FF
:20E120000000000000000000000000000000000000000000000000000000000000000000DF
:20E140000000000000000000000000000000000000000000000000000000000000000000BF
:20E160000000000000000000000000000000000000000000C2E7955F2CA59F96A457497741
:20E180004896D9CA8F7D82FA80766C95333772D0ABEC5CD000000000000000000000000010
:20E1A00000000000000000000000000000000000000000000000000000000000000000005F
:20E1C00000000000000000000000000000000000000000000000000001D1850E88158100BC
:20E1E00000000000000000000000000000000000000000000000000000000000000000001F
:20E200000000000000000000000000000000000000000000000000000000000000000000FE
:20E220000000000000000000000000000000000000000000000000000000000000000000DE
:20E240000000000000000000000000000000000000000000000000000000000000000000BE
:20E2600000000000000000000000000000000000000000000000000000000000000000009E
:20E2800000000000000000000000000000000000000000000000000000000000000000007E
:20E2A00000000000000000000000000000000000000000000000000000000000000000005E
:20E2C00000000000000000000000000000000000000000000000000000000000000000003E
:20E2E000FFFFFFFFFFFFFFFFFFFFFFFFFFFFFFFF000000000000000000000000000000002E
:20E300000000000000000000000000000000000000000000000000000000000000000000FD
:20E320000000000000000000000000000000000000000000000000000000000000000000DD
:20E340000000000000000000000000000000000000000000000000000000000000000000BD
:20E3600000000000000000000000000000000000000000000000000000000000000000009D
:20E3800000000000000000000000000000000000000000000000000000000000000000007D
:20E3A00000000000000000000000000000000000000000000000000000000000000000005D
:20E3C00000000000000000000000000000000000000000000000000000000000000000003D
:20E3E00000000000000000000000000000000000FFFFFFFFFFFFFFFFFFFFFFFFFFFFFFFF2D
:20E4000000480047B1E58000AFF3008000F006F81FB503F0B3F803F0A8F81FBD00F0C0F9BD
:20E420001146FFF7F5FF00F034FD4CF4FBF4000010B5A14AA149A2484BF42FF5A14AA2498E
:20E44000A2484BF42AF5A249A2484BF4E7F5A24AA249A3484BF421F5A24AA349A3484BF46B
:20E460001CF5A349A3484BF4D9F510BD7FB5A24800684FF40011D1F8841308449E49083134
:20E48000096845181022294668464BF406F5102269460020F8F79EDF06469848D0F87C0147
:20E4A00066F31F40964908604FF0FF30F9F781D9934909684843924908600846006803F0E1
:20E4C0003FF8002404E000F049F945F82400641C042CF8DB00F042F9894908607FBD10B581
:20E4E0008848006820F07F408749884208D000BF00BF002285498648F9F7B1DA00BF20E02D
:20E5000000BF0022114645F20600FDF7B2DDC0B204464CB100BF00BF234601227D497C48B6
:20E52000F9F79DDA00BF0BE000BF00BF75480068030E012278497648F9F791DA00BF00BF9B
:20E5400000BF10BD38B572B6FFF7C9FFFFF770FFFFF78CFF002001F0C7F9162000F06CFA19
:20E56000172000F069FA6DA11F204BF443F400BF00BF6BA14FF00550F9F777DC04466FA193
:20E580004FF00550F9F771DC05462B4602226D495F48801E0094F9F762DA00BF00BF00F0A1
:20E5A0004DF96948006810B167480068804738BD10B5FEF7D5D828B94F48A438007800F045
:20E5C000010000B910BDAFF28300604908606048604908604FF40C404749091D086047F2E0
:20E5E000F0604FF40011C1F888035B48C1F8CC0341483338007820F0080008303E49333959
:20E60000087006204FF4001181F84F03084690F89A0320F0200081F89A033748083800784D
:20E6200020F00200801C81F8780333480838007820F02000203081F878032F480838007862
:20E6400020F00400001D81F87803084690F89A0320F0010081F89A0327484C38007820F080
:20E660000100401C81F83403084690F87A0320F0100081F87A03084690F8C30320F0C000B8
:20E680001D4943310870F0201B49603908703C20491C0870C820491C0870FF204FF4001132
:20E6A00081F8230314486B38007820F00400001D81F8150300BF85E750010000401F810026
:20E6C000007C2000BC00000090208100507D2000F00100000C7E2000000000004C2181003B
:20E6E00000C02100000000004C21810000C021000000000000C02100800320000080054021
:20E700001C7E2000507D20007465720000008008020310211C00800850008008430000008A
:20E72000546875204D61792020372031373A31373A3133203230323000000000312E322E7F
:20E74000322E31007C0080086C7D2000380C2000E1E780003C0C20000300AAA20B49D1F89B
:20E7600000C04A685CF8043B1068184442F8040B8C4528BFA1F1DC0C8A4228BFA1F1DC0222
:20E78000C1F800C04A6020F000407047F47F20004FF000501049EFF30582104B9847FEE74C
:20E7A00070474572726F722120506C6561736520696D706C656D656E7420796F75722049BA
:20E7C00053522048616E646C657220666F7220495251202564210A00A2E78000B17900003C
:20E7E00010B59A48007820F0800080304FF4001181F89B039548BF38007800F0010030B131
:20E8000000BF93A14FF00450F9F7D2D80AE000BF92A14FF00450F9F7CBD800BF03F491F09F
:20E8200017F4CFF78948401E007800F0010010B10020F9F7CFDCFFF7E7FD10BD2DE9F04105
:20E84000BEB0402290492EA84BF4AEF3B4228E49403101A84BF4A8F34FF400168B4D8C4FAC
:20E8600000248C480068B0F5001F02D03046F6F71BDA002444E00CB1012C00D13FE055F8DB
:20E8800024008549884202D055F8240050B955F824008149884231D156F8240040F255115F
:20E8A00088422BD1102C11D200BF00BF2EA850F824104FF00550F9F7D8DA804643460122FB
:20E8C00076497748F9F7CBD800BF13E000BF00BFA4F1100001AA52F820104FF00550F9F7A9
:20E8E000C4DA8046434601226E496D48F9F7B7D800BF00BF55F8240046F8240000BF641C8D
:20E90000B4EB970FB7D3BFF35F8FBFF34F8F3EB0BDE8F08170B504460D4644EA0526314662
:20E920000120F8F7BDDC70BD70B50546002447484F38007865F301004FF4001181F84C036A
:20E940000022114645F20200FDF793DB044644B93E484F38007820F003004FF4001181F8F7
:20E960004C03204670BD10B5044640F271434E4A2146002017F4F4F110BD70B504460D4622
:20E9800004FB05F140F27643484A002017F414F270BD70B504460D4614B1204617F46BF252
:20E9A0004FF49063424A2946002017F4D9F170BD10B50446204617F45EF210BD70B50546F7
:20E9C0000C463C48006864F31F603A4908603A48006830B121462846374A1268904700B115
:20E9E00070BD00BFFCE770B504460D463348006830B129462046314A1268904700B170BD43
:20EA000000BFFCE710B52E48006820B12C480068804700B110BD00BFFCE72A48006870478C
:20EA200010B50E22284929484BF437F2274810BD2548801E0078704700F01F02012191401D
:20EA4000234A430942F82310704700009B032000496E20536F43204D6F6465005741524E62
:20EA6000494E473A20496E20484349204D6F64652C2077696C6C206E6F742072756E2041C3
:20EA80005050205461736B00AC1581004C1E8100F400000008ED00E091E780009C00800811
:20EAA00001011021C0008008A0168100A7168100AE168100507D20000C7E2000107E2000DC
:20EAC000147E2000F4002000F5282000207E200080E100E01FB53920234B0822202100909E
:20EAE000224817F407F23A201F4B0122402100901F4817F4FFF120221C4801681C48006893
:20EB00003DF4B3F121E04020174B4FF0FF3203A900901748006817F495F2B0B19DF80C0056
:20EB200002280ED14620104B002201A900900F48006817F487F218B1DDE9010100F0C7FC28
:20EB400003E09DF80C003DF4FDF1DCE71CB50120C1020023AFF28302CDE9001005A1064897
:20EB600017F436F71CBD0000B6168100387E2000347E200061707000307E20002DE9F04733
:20EB800005460E4642F29070854203DB42F29A70854202DB0020BDE8F08742F290708542E4
:20EBA0000ED12846FDF71EDE0446A146B9F1000F01D10020EFE7D9F8940130600120EAE77E
:20EBC00042F29570854204DC2846FDF70BDE044606E00022294645F20500FDF74ADA0446AB
:20EBE000284600F079F90746A046B8F1000400D00FB90020CFE7D8F8600030600120CAE765
:20EC000000B59BB02822CC4911A84BF4CDF140F2C130109000200F900E900C900D9007205F
:20EC20000B9000200A904FF4A0700990089001200790052006900320059000200490039089
:20EC4000029001900090BD483DF4FBF711AA282140F222203DF4F8F710AA022140F22120F1
:20EC60003DF4F2F70FAA012140F2632043F410F10EAA01214FF4197043F40AF10CAA0621FD
:20EC800040F2652043F404F10BAA012140F2662043F4FEF00AAA012140F2672043F4F8F02F
:20ECA00009AA02214FF41A7043F4F2F008AA022140F2692043F4ECF0A14A102140F2612026
:20ECC00043F4E6F09F4A042140F2622043F4E0F007AA012140F202203DF467F106AA0221DB
:20ECE00040F203203DF461F105AA01214FF401703DF45BF104AA012140F205203DF455F19C
:20ED000002AA042140F211203DF471F203AA012140F212203DF46BF201AA012140F2132038
:20ED20003DF465F26A4602214FF405703DF45FF21BB000BD10B5032040F4E4F3824800F009
:20ED4000DAFE82490870804801F043F8804908707D4801F07CFA7F4908707B4840F4EBF322
:20ED600010BD1CB55A21002002F404F300200090022301221146019002F430F31CBD1FB5C7
:20ED800001224FF00451744801F0B6FA684601F080FD002001F0A7FD009000208DF8040055
:20EDA000684601F0FFFC002001F09DFD044600206A49096D214001B1012000BF08B90120A6
:20EDC00000E00020664908701FBD704710B5FFF7BDFE10BD10B586B042F2907405A92046EF
:20EDE000FFF7CCFEB0B100BF0598C0B20599C1F30721059AC2F30742059B1B0ECDE900325C
:20EE0000CDE90210224657A14FF00450059BF8F7CFDD07E000BF22465FA14FF00450F8F76C
:20EE2000C7DD00BF42F2917424E005A92046FFF7A5FEA8B100BF0598C10EC0F30E32C0F35B
:20EE40000710059B03F00F03CDE90030CDE90221224644A14FF00450059BF8F7A9DD07E05B
:20EE600000BF22464CA14FF00450F8F7A1DD00BF601C84B242F29A708442D6DB06B010BDD5
:20EE800010B500BF51A14FF00450F8F791DD00BF10BD10B55148006802F052FB00BF50A1CB
:20EEA0004FF00450F8F784DD00BFFFF793FFFFF758FFFFF764FF01203DF480F601F09BFD31
:20EEC000FFF79EFEFFF736FFFFF77FFFFFF77EFF17F477F4002010BD70B50446002642F262
:20EEE0009070844203DB42F29A70844201DB304670BDF2F76BD9054642F290712846FDF7DC
:20EF000053DC08B93046F3E742F29070844202D14FF480560CE02846A4F51C51913900F5AC
:20EF2000CE7252F83160B6F1FF3F00D1002600BF00BF3046DCE70000C4168100EDF4800067
:20EF4000597D2000557D200087F580003D7E20003E7E20003F7E20000001000C00100040DC
:20EF60003C7E2000696D6167653A307825782C76657273696F6E203D307825782C2073752D
:20EF8000625F76657273696F6E3A25642E25642E25642E2564000000696D6167653A3078DD
:20EFA0002578206765745F6163746976655F62616E6B5F696D6167655F76657273696F6EB7
:20EFC000206661696C21212100000000757365725F7072655F6D61696E0000001C7E2000EF
:20EFE0004E6F726D616C206F7461206D61696E0070B586B004460E46154626B1012E26D02F
:20F00000022E3AD12FE0224605A940F272203EF436F5224604A940F273203EF430F52246D6
:20F0200003A94FF41D703EF42AF500BF00BFBDF80C00BDF81010CDE90010BDF8143003220B
:20F04000FA49FB48F8F70BDD00BF00BF16E000BF00BF2B460122F749F548801EF8F7FFDCE8
:20F0600000BF00BF0AE000BF00BF0022F249F048F8F7F5DC00BF00BF00E000BF00BF06B0C3
:20F0800070BD70B505460C46164600BF00BF2B460122EA49E648F8F7E2DC00BF00BF14B1C2
:20F0A000012C1ED109E000BF00BF0022E449E048F8F7D5DC00BF00BF1FE046B900BF00BFBC
:20F0C0000022E049DA48F8F7CADC00BF08E000BF00BF0022DC49D648F8F7C1DC00BF00BF9A
:20F0E0000BE000BF00BF23460122D849D048801EF8F7B5DC00BF00BF00BF00BF70BDF0B5F6
:20F100008BB006460C46154600BF00BFD048007833460322CF49CDE90004C548F8F79FDCC6
:20F1200000BF00BF14B1022C5FD12BE040F2131085420DD0B5F58B7F0AD000BF00BF2B46AD
:20F140000122C549BA48801EF8F789DC00BF00BF00BF00BF2B460122C049B548F8F77FDCAA
:20F1600000BF00BFBE48007848B10020BC49087038F4B1F4D2210120FFF7CCFB01E042F444
:20F18000A2F733E032460AA940F272203EF477F4324609A940F273203EF471F4324608A988
:20F1A0004FF41D703EF46BF405AA06A930463EF41EF500BF00BF06A9AA48F8F70DDE07468F
:20F1C000BDF82000BDF82410BDF828209DF81430CDE90032CDE902103B460522A24994487C
:20F1E000F8F73DDC00BF00BF00E000BF00BF984804700BB0F0BD13B584B00C4600BF00BFA3
:20F200009DF8100080099DF81010C1F38101CDE9010400919DF8100000F0010304229349EE
:20F220008348F8F71CDC00BF00BF9148007800F001009DF8101001F00101884206D09DF87F
:20F24000100000F0010008B142F43DF788480078C0F381009DF81010C1F3810188422AD05F
:20F260009DF81000C0F38100B0B99DF81000C0F3400040B100BF00BF00227E496C48F8F7B9
:20F28000EEDB00BF17E000BF00BF00227A496848F8F7E5DB00BF0EE09DF81000C0F38100A7
:20F2A000022808D100BF00BF002274496048F8F7D6DB00BF00BF6E48007880099DF81010BC
:20F2C000B0EB911F0FD000BF00BF9DF8100080090090674800788309022269495448F8F7B4
:20F2E000BEDB00BF00BF62489DF81010017006B010BD70B586B005466868059000BF00BF1B
:20F300006B8801225F494A48401CF8F7A8DB00BF00BF68880B287DD2DFE800F0CB060CC289
:20F32000CB152E586B411E00BDF816100598FFF762FFC9E0BDF816209DF815109DF81400D7
:20F34000FFF7DDFEC0E0BDF816209DF815109DF81400FFF796FEB7E09DF81440012120465C
:20F3600001F0DDFB00BF00BF002247493048F8F776DB00BF00BFA7E0002004909DF814403A
:20F3800004A920463DF431F000BF00BF01223F492748049BF8F763DB00BF00BF94E0002092
:20F3A00004909DF8144004A920463DF41EF000BF00BF012236491E48049BF8F750DB00BF80
:20F3C00000BF012120463DF425F07DE0314E9DF8144000BF00BF234601222F491448F8F70E
:20F3E0003EDB00BF00BF0122314620463CF4C9F76AE0002001900290039004909DF81440E9
:20F4000000BF00BF002225490948F8F728DB00BF00BF00E04DE001AA10214FF404703CF44D
:20F42000E6F6012120463CF4C6F74DE0E403800802301021680480089C048008B402800822
:20F44000E40280082003800868038008B0038008427E2000B0018008FC0180081C02800821
:20F46000407E20000000302130028008E8008008417E200040018008700180088401800885
:20F4800098018008D0048008F4048008140580084405800838900D0078058008A8058008EE
:20F4A000BDF816209DF815109DF81400FFF7A0FD0AE000BF00BF6B880122D449D448F8F7C5
:20F4C000CEDA00BF00BF00BF00BF06B070BD13B5BDF8004014B1062C05D103E06846FFF794
:20F4E00008FF01E000E000BF00BF1CBD2DE9FC4105460E4600273446012D24D0142D02D025
:20F50000202D30D112E000BF00BF2068808821684988CDE90010206803780322BD49BC484B
:20F52000801CF8F79CDA00BF00BF28E000BF00BF206803780122B849B548801CF8F78FDAAE
:20F5400000BF00BF1BE000BF00BF206840880090206803780222B149AD48801CF8F77FDADA
:20F5600000BF00BF0BE000BF00BF2B460122AC49A748801CF8F773DA00BF00BF00BF00BF58
:20F580003846BDE8FC812DE9F04186B006460D464FF00008FF2E3DD12C46207810B1012839
:20F5A00035D10BE000BF00BFA37801229D499848801CF8F754DA00BF00BF29E000BF00BF1A
:20F5C0006088E18862792389CDE90032CDE902102379052294498E48801CF8F740DA00BFC9
:20F5E00000BF208948B900BF00BF00228F498848801CF8F734DA00BF08E000BF00BF00227A
:20F600008B498348F8F72BDA00BF00BF00E000BF00BFF7E08748007886423FD12C4660783B
:20F62000012802D0022836D11AE0A078012809D100BF00BF002280497548801CF8F70FDAEF
:20F6400000BF0CE0A078022809D100BF00BF00227A496F48801CF8F702DA00BF00BF1BE0E9
:20F6600096207749088064207649088000BF00BF084600880090724803880222724964480D
:20F68000801CF8F7ECD900BF00BF6E4A0121084600F06CF900E000BF00BFB3E06B48007803
:20F6A000864272D12C46207802286FD1A078012809D167A207CA03AB07C303AA0B21002065
:20F6C00000F050FA76E0A07802280CD163A292E80B00D26802AF0BC7059202AA0E210120A1
:20F6E00000F040FA66E0A078032809D15FA30FCB02AF0FC702AA1021022000F033FA59E0C5
:20F70000A07804280AD114225CA101A84AF44CF401AA1221032000F025FA4BE0A0780528F0
:20F720000AD114225AA101A84AF43EF401AA1221042000F017FA3DE0A07806280AD114222D
:20F7400058A101A84AF430F401AA1221052000F009FA2FE0A078072809D157A103C9CDE905
:20F76000040104AA0821062000F0FCF922E0A07808280CD1142252A101A84AF415F401AAB7
:20F780001321072000F0EEF914E017E013E0A07809280FD103274FA103C9CDE904018DF80A
:20F7A000157038128DF8160004AA0721082000F0D9F900BF00E000BF00BF23E047480078F8
:20F7C00086421FD12C462078032818D1A078012813D12079012810D100BF00BF0022404962
:20F7E0000B48801CF8F73BD900BF00BF01203D49087000203EF416F200E000BF00E000BFE2
:20F8000000BF00BF404606B0BDE8F081C805800800301021F80580084C06800878068008FD
:20F82000B4068008E00680080C07800874078008A00780083D7E2000CC078008F407800892
:20F84000447E2000467E20001C0880083E7E20005265616C74656B20425400004D6F646557
:20F860006C204E627220302E3900000052544B42656553657269616C4E756D0052544B4263
:20F880006565486172647761726552657600000052544B4265654669726D77617265526552
:20F8A0007600000052544B426565536F66747761726552657600000000010200000304054E
:20F8C00052544B42656549454545446174616C6973740000015D0001000000003F7E2000A1
:20F8E00060088008407E200070B50546032D01DB002070BD05EBC5001A4901EB80040822BF
:20F90000194920684AF47EF208B90120F1E7A2696168E0684AF4C1F2E269A16820694AF46D
:20F92000BCF2216A60694AF479F30F49206802680A60406848600120DBE770B500240DE0FE
:20F9400004EBC400074901EB80050822064928684AF458F208B9E0B270BD641C032CEFDBA9
:20F960000320F9E7707D2000487E20002DE9F04104460D4616460127012C0AD0002700BF3C
:20F9800000BF00226C496D48F8F769D800BF00BF07E0012D01D0002702E0307868490870AE
:20F9A00000BF00BF3846BDE8F08137B582B004460D460020012104AB0222CDE90010294630
:20F9C00020463FF4EFF605B030BD37B582B004460D465C48007801280DD1002059490870EF
:20F9E000012104AB0222CDE90010294620463FF450F605B030BD0020FBE72DE9F84F0546B2
:20FA00000E4614461F46DDE90A8A4FF000090020A8F8000000BF00BF234602224A49474844
:20FA2000801C0097F8F71BD800BF00BF022C0CD000BF00BF2346012244494048F8F70FD834
:20FA400000BF00BF40F20A491BE002208DF801008DF8005001208DF80200694630463C4AD8
:20FA600012689047814640F60150814502D10120344908703248CAF800000120A8F800003B
:20FA800000BF00BF4846BDE8F88F2DE9FC4107460E4614461D4601208DF805008DF80470D9
:20FAA000804600BF00BF234602222A492348801C0095F7F7D4DF00BF00BF032C0AD105F048
:20FAC000010018B101208DF8060002E002208DF8060002E04FF0000800BF00BF1C480068AE
:20FAE00038B1B8F1010F04D101A93046184A12689047BDE8FC813EB504461749D1E9010141
:20FB0000CDE90001144870221449036802A83FF4AEF560B900BF00BF9DF808300122104918
:20FB20000648F7F79CDF00BF00BFFF200290084804609DF808003EBD480A80080033102155
:20FB4000507E2000517E2000640A8008940A8008547E2000C40A80085C178100EC168100ED
:20FB6000F40A80082DE9F04105460C4616460127092D06D2DFE805F007121D28333E495263
:20FB80005D0000275EE0142C00DD1424A248047022463146A1484AF480F153E0142C00DD29
:20FBA00014249F480470224631469E484AF475F148E0142C00DD14249B4804702246314696
:20FBC0009A484AF46AF13DE0142C00DD1424984804702246314697484AF45FF132E0142C46
:20FBE00000DD1424944804702246314693484AF454F127E0142C00DD142491480470224652
:20FC0000314690484AF449F11CE0082C00DD0824224631468C484AF440F113E01E2C00DDA8
:20FC20001E248A4804702246314689484AF435F108E0072C00DD07242246314685484AF41B
:20FC40002CF100BF00BF47B900BF00BF002282498248F7F704DF00BF00BF3846BDE8F081F1
:20FC60002DE9FC470746884616469A46DDE90A454FF000090020208002208DF804008DF887
:20FC80000570B01E11280AD2DFE800F02309840931094D093F095B0916096909770000BF99
:20FCA00000BF334601226E496C48F7F7D8DE00BF00BF40F20A497BE007208DF8060001A920
:20FCC0004046684A126890475F482860082020806EE001208DF8060001A94046614A126855
:20FCE00090474E4828604C480078208060E003208DF8060001A940465A4A126890474B48BD
:20FD0000286049480078208052E005208DF8060001A94046534A126890474848286046480C
:20FD20000078208044E004208DF8060001A940464C4A126890473F4828603D480078208015
:20FD400036E006208DF8060001A94046454A126890473C4828603A480078208028E00820F6
:20FD60008DF8060001A940463E4A12689047384828603648007820801AE009208DF80600A3
:20FD800001A94046374A1268904732482860072020800DE002208DF8060001A94046314A53
:20FDA000126890471F4828601D480078208000BF00BF00BF00BF2088334602222A49009042
:20FDC0002648801CF7F74BDE00BF00BF4846BDE8FC873EB504462549D1E90101CDE90001B0
:20FDE00022484FF405722249036802A83FF43FF460B900BF00BF9DF8083001221D491748AD
:20FE0000F7F72DDE00BF00BFFF200290154804609DF808003EBD0000707E20005C7E200059
:20FE2000857E2000717E20009A7E2000867E2000AF7E20009B7E2000C47E2000B07E2000FE
:20FE4000D97E2000C57E2000DC7D2000097E2000EB7D2000E47D2000180B80080033102190
:20FE6000340B8008587E20005C0B80088019810068178100940B80082DE9FF5F82460F4604
:20FE800015469B46DDE90F490E9E4FF00008022D18D1012E00D114B940F20D485FE0032047
:20FEA0008DF8040001208DF8060021788DF80810F7480068002852D001A93846F44A126806
:20FEC00090474CE0102D23D1052E00D114B940F20D4844E003208DF8040002208DF8060019
:20FEE00021788DF80810A178607861F31F20ADF80A002179E07861F31F20ADF80C00E44837
:20FF0000006860B301A93846E14A1268904726E00C2D17D1012E00D114B940F20D481EE049
:20FF200003208DF8040002208DF8060021788DF80810D748006890B101A93846D44A1268AA
:20FF400090470CE000BF00BF2B460222D149D2480096F7F784DD00BF00BF40F20A4840462A
:20FF600004B0BDE8F09F2DE9F04F87B089469046DDE910674FF0000A00200390B8F10A0F6D
:20FF80007DD009DCB8F1040F19D0B8F1060F30D0B8F1080F06D14FE0B8F10E0F73D0B8F154
:20FFA000120F6ED000BF00BF43460122BB49BA48F7F755DD00BF00BF40F20A4A37E1B84975
:20FFC0004FF400703CF437F0002006E0C0F10501B34A515C01AA1154401C0628F6DBB0484D
:20FFE00001990160BDF8081081803860062030801DE142F29270FCF7F5DB044600BF00BF0B
:02000004008179
:2000000023460122A749A448F7F729DD00BF00BF2546A549286E086000BF00BF08460122C0
:20002000A24903689C48F7F71ADD00BF00BF9E48386004203080FAE042F29370FCF7D2DB20
:20004000044600BF00BF2346012299499248F7F706DD00BF00BF25469649286E086000BF3A
:2000600000BF08460122944903688B48F7F7F7DC00BF00BF8F48386004203080D7E001E01B
:2000800001E051E0D3E042F29070FCF7ABDB04462546687889498870052008700120487019
:2000A0006878887086480078C97860F300018348C1708448007840098049C97860F3410165
:2000C0007E48C170C07820F00400001D7B49C8700846C07820F00800C870FCF7B2DB7749AE
:2000E000C97860F304117548C1704FF4006073498880FCF7A6DB70B124F07F407249884215
:2001000004D14FF4A2606D49886008E04FF422606A49886003E04FF47F6068498860674892
:2001200038600C20308082E042F29070FCF75ADB054600BF00BF2B46012264495648F7F7F7
:200140008EDC00BF00BFAB46BBF1000503D06049DBF894010860FCF774DB48B342F2927056
:20016000FCF740DB05462C4614B15949206E486042F29370FCF736DB05462C4614B15449BD
:20018000206E886000BF00BF5148806850494968CDE900104E4803224E4903683E48F7F7A9
:2001A0005EDC00BF00BF4A4838600C20308035E042F29170FCF716DB05462C4614B1444944
:2001C000206E486042F29270FCF70CDB05462C4614B13F49206E886042F29370FCF702DB52
:2001E00005462C4614B13A49206EC86000BF00BF3748C06836498968354A5268CDE900219F
:20020000029033480422344903682348F7F727DC00BF00BF2E4838601020308002208DF854
:20022000100006208DF812000120039000BF00BF1748006838B10398012804D104A948463B
:20024000134A12689047504607B0BDE8F08F3EB504462249D1E90101CDE900011F484FF4BA
:2002600005721F49036802A83FF401F2E0BB00BF00BF9DF8083001221A490748801EF7F71D
:20028000EEDB00BF00BFFF2002909DF808003EBDDC7E2000B80B800802331021F40B80081C
:2002A000E07E2000240C8008E87E2000380C8008500C8008F07E2000640C8008F47E2000BA
:2002C0003C7E20001403200000208000780C8008007F2000900C8008C00C8008B01B8100FE
:2002E0009C198100040D8008FFE7024804609DF808003EBDDC7E200070B50346C3F3816480
:20030000C1F34170012A4CD1F84DA9420ED1F84D2D6845F080650E06C6F80C520D06D5F81D
:200320000C5245F00055C6F80C523AE0B1F1C24F0FD1EF4D2D6845F080654FF08046C6F85E
:200340000C523546D5F80C5245F08055C6F80C5227E0E64D303DA94202D0E64DA9420FD111
:20036000E34D2D6845F080654FF08046C6F80C523546D5F80C5245F00065C6F80C5210E031
:20038000DD4DA9420DD1DD4D2D6845F400750E04C6F860530D04D5F8485345F01005C6F8F9
:2003A0004853012A12D1B1F5907F04D0B1F5A07F01D010291DD1CE4D14352D6843EA010621
:2003C00035434FF08046C6F8205270BDB1F5907F04D0B1F5A07F01D010290AD1C44D1435B6
:2003E0002D6843EA0106B5434FF08046C6F82052EBE723F0406321F0C041012A24D1BC4D44
:200400002D1D55F824501D43B94E361D46F82450B74D243505EB800555F8046C0E43B44D84
:20042000243505EB800545F8046CB14D243505EB800555F8045C45EA4106AD4D243505EB0F
:20044000800545F8046C23E0A94D2D1D55F824509D43A74E361D46F82450A54D243505EB51
:20046000800555F8045C8D43A14E243606EB800646F8045C9E4D243505EB800555F8045CB6
:2004800025EA41069A4D243505EB800545F8046C00BF9AE79A4A90421ED1954A283212680C
:2004A00022F480324FF08043C3F834221A46D2F85C2322F4C012C3F85C231A46D2F85C23ED
:2004C00042EAC142C3F85C231A46D2F8342242F48032C3F834221FE08A4A90421CD1844ADA
:2004E0002832126822F480220305C3F834220205D2F85C2322F4C002C3F85C230205D2F824
:200500005C2342EA4152C3F85C230205D2F8342242F48022C3F8342270477B4A90421DD117
:20052000734A2C32126822F001028304C3F838228204D2F85C2322F4C032C3F85C238204DE
:20054000D2F85C2342EAC132C3F85C238204D2F8382242F00102C3F838221FE06B4A90427F
:200560001CD1634A2C32126822F004020305C3F838220205D2F85C2322F4C022C3F85C2352
:200580000205D2F85C2342EA4142C3F85C230205D2F8382242F00402C3F8382270475C4A4D
:2005A00090421DD1524A2832126822F001024304C3F834224204D2F85C2322F4C062C3F81C
:2005C0005C234204D2F85C2342EA4122C3F85C234204D2F8342242F00102C3F834221FE099
:2005E0004C4A90421CD1424A2432126822F480528304C3F830228204D2F85C2322F4C052D7
:20060000C3F85C238204D2F85C2342EAC122C3F85C238204D2F8302242F48052C3F83022D1
:20062000704710B50A46C0F34171012A10D1B0F5907F04D0B0F5A07F01D0102819D12C4BC7
:2006400014331B6803434FF08044C4F8203210BDB0F5907F04D0B0F5A07F01D0102808D17E
:20066000234B14331B6883434FF08044C4F82032EDE720F0C040012A1BD11D4B243303EBC3
:20068000810353F8043C0343194C243404EB810444F8043C164B243303EB810353F8043CA3
:2006A00043EA4004124B243303EB810343F8044C1AE00F4B243303EB810353F8043C8343AA
:2006C0000B4C243404EB810444F8043C084B243303EB810353F8043C23EA4004044B2433DD
:2006E00003EB810343F8044C00BFB0E7400000600C02004000000160004000206003004055
:2007000000300140003401400050014000540140002001400010014010B50A46C0F3816171
:20072000012A0DD1022803D0042801D0012815D1174B1B6803434FF08044C4F8203210BD9E
:20074000022803D0042801D0012807D1104B1B6883434FF08044C4F82032F0E720F0406062
:20076000012A09D10A4B103B53F821300343084C103C44F8213008E0054B103B53F82130A6
:200780008343034C103C44F8213000BFD7E700002002004010B500224FF004517648FFF75D
:2007A000ABFD10BD0179012915D17449496802681143724A5160417A31B91146896802684A
:2007C00091436E4A916063E06C498968026811436A4A91605CE06949496802689143674AC2
:2007E00051604179012953D100215163817961B91146896B02689143604A91631146096E62
:20080000026811435D4A116610E08179012907D15A49896B026891431143584A916305E06C
:200820005649896E02681143544A9166C17931B95249C96B02689143504AD16306E04F4952
:20084000C96B0268914311434C4AD163017A31B94A49896C02689143484A916418E04749CE
:20086000896C026891431143444A91644FF4E051434A11601107D1F8441344F62063C268DD
:200880005A430123C3EB5232D2B211433C4A116070474FF0FF3101600021017141718171D8
:2008A000C171017241721421C160704729B1334A126B0243314B1A6304E0304A126B824321
:2008C0002E4B1A6370472D49C864704729B12B4A526B0243294B5A6304E0284A526B8243B8
:2008E000264B5A63704701461E2902DC012088407047232906DC202904DB081F012202FA6B
:2009000000F0F5E7242903D0252901D0262905D1A1F10B00012202FA00F0E9E7FF20E7E73E
:2009200001461E2901DC08467047232904DC202902DB081FC0B2F7E7242903D0252901D03F
:20094000262903D1A1F10B00C0B2EDE7FF20EBE740B10B49096841F480514FF08042C2F829
:20096000441307E00649096821F480514FF08042C2F84413704700000001000C001000406D
:200980004403004070B504460120087060880025B0F5977F1AD006DC0E280BD00F2811D00B
:2009A000222826D10AE0A0F580702F3816D0A2281FD11AE0201D00F0E8FB1AE0A08800F064
:2009C00064F809E0201D00F065FC12E020463EF439F5201D00F03AF901250AE020463EF484
:2009E00031F5201D00F03EF9F6E7204600F003FB0546284670BD30B587B000200590012460
:200A00000690CDE90040104D0390049002901C2308220C492846F7F722D80A49059406949A
:200A2000039404940094019400230822F03128460294F7F714D8AFF2B30007B0BDE83040F2
:200A40003BF4E6B1580D80080035102170B502240546012802D00324204670BD3DF488F089
:200A60000028F9D1FB480178C807F5D011F00C0FF2D011F0300FEFD18809EDD1284610F495
:200A800030F60028E8D00024E6E738B5040007D1F049087820F00E000870FC203CF411F2F8
:200AA000ED480268002A04D0ADF800406946A520904738BD30B58BB04FF00001E74D0400DC
:200AC000069107910891099102D02078012808D001230122E2492846F6F7C1DF00200BB001
:200AE00030BDA078000718D56A46142120463FF439F480B1102206A9684649F483F140B1F0
:200B0000D7496378012230392846F6F7A8DF0120E5E70523DDE70423DBE70223D9E70A4675
:200B200000EB4001CF4810B5006800EB0110017829B18179C01D10F490F5002010BD042085
:200B400010BDF0B585B00C46060005D011F4D1F278B3002005B0F0BD002744B3FDF7FEFD3F
:200B60002070010A6170010CA170000E651CE070FDF7F4FDE870000A287140F0C00060716B
:200B8000B9A00622D0E90010CDE90110B8A0D0E90010CDE9031001A9204649F433F148B1F0
:200BA000062203A9204649F42DF118B104E00320D0E70FE0662020702146AF48F7F70CD9E3
:200BC000A749034602223831A4480096F6F747DF3846BFE70720BDE770B50D463CF48AF6A3
:200BE00004002AD0A5489E49012203789B487431401CF6F734DF974901220878B2EB901FD2
:200C00000AD16278032A07D1A278012A04D1228A12B920F0C0000870E0782A46002141F423
:200C20003CF500203CF44DF1E06A08B115F423F12046BDE870403CF44CB68949BDE87040C1
:200C400086480022A431801EF6F7099F438833B1834982480122D431801EF6F7009F8188FC
:200C60000088B9E710B5044641880088FFF7B4FF2088BDE8104010F4CBB510B58AB00C46D1
:200C80000021217009AA07A93CF4B1F7B8B19DF8241007A83FF47BF288B16A4611213FF498
:200CA00061F360B19DF81B30012275496B48F6F7D6DE9DF81B00207000200AB010BD0320B0
:200CC000FBE77048008870472DE9F84F0F46050008D0624B28789B1E012806D068490022D4
:200CE00048310BE00020BDE8F88F674869780078401E814206DD6249002220311846F6F7CF
:200D0000AEDEEFE7DFF87C813846B8F800108E0849F484F10024DFF87491DFF874A111E03A
:200D200068780090B9F80010BAF800000423084400EB840081B207EB8400B8F8002040F441
:200D400073F1641CB442EBDB0120CCE730B5A7B0040007D004F108006178054640F438F289
:200D600018B114E0002027B030BDE07BC1070ED0012121706288830742F00102628002D5BC
:200D800042F080026280400704D5217102E0207801285DD161780AA840F45CF230B99DF8AF
:200DA000280018B1608840F002006080617812A840F499F230B99DF8480018B1608840F04F
:200DC00004006080617804A840F4FBF270B99DF8270058B108982061BDF82400A0829DF8EA
:200DE0002600A075608840F00800608061781AA840F4B0F330B99DF87D0018B1608840F06A
:200E000010006080617820A840F411F430B99DF8950018B1608840F020006080607840F408
:200E20007BF418B1608840F04000608029461248F6F7D2DF22796188A37BCDE90212CDE9B9
:200E400000030F49637805227C310448F6F707DE012088E7382E2000482E20000235102156
:200E6000600F8008642E20000000000000C00000FFFFFFFFFFFF000000003021602E200010
:200E800068108008EE2E2000BC2E2000F02E2000E02E20002DE9FE438846984D00211170F4
:200EA0002988974E1746884202D00022954949E0D8F800100191D8F8040002909DF80A10F3
:200EC00001A83FF464F1040006D19DF80A1001A83FF4BDF4040008D001208A493870002230
:200EE00034313046F6F7BBDD39E09DF80B000027400700D501279DF80A103A4601A83FF463
:200F0000DFF104000DD13FF44BF450B340783BF42DF19DF80A103A4601A83FF4D1F10400D4
:200F20001FD060780090784878492A8800880988D3B2084481B2404640F456F040B171495F
:200F4000002264313046F6F78ADD0020BDE8FE83617801203FF461F72046FFF7F7FE20468E
:200F6000F4E768490022A431ECE700B591B04FF4E871ADF80010ADF804000121684610F457
:200F800038F211B000BD10B50446014660483CF443F568B15F4904EB4400096801EB0010E2
:200FA000008AFFF7E2FF08B1002010BD072010BD042010BD7FB5584D04462868002819D081
:200FC00060883CF497F4002814D0C0788DF800002088ADF8020020798DF80400E088ADF827
:200FE00006002089ADF80800CDF80CD02A6803A91B2090477FBD10B541880124A1F580712E
:20100000D13902D00024204610BD001DFFF7D2FFF9E770B50C46054601463D4886B01730CE
:201020003CF4FAF490B3611E4FF6FF72394B05EB450091420ED2196801EB00118A8A02EB2F
:2010400082029608CA8A521C564304EB8402B6EB420F1CDD196801EB0010818AC08A01EBF5
:2010600081029208431C5A4304EB84035B00CDE90041CDE90203234904922B460622C43144
:201080001F48F6F7ECDC032006B070BD15E0088A8DF81400000A8DF815008DF81640200A65
:2010A0008DF8170005AA042140F67C4010F41EF208B10020E8E70720E6E70420E4E710B56A
:2010C00004460146124837303CF4A6F4A0B1114904EB4400096801EB0010008A0EF489F1A3
:2010E00040B1418D172903D30BF45FF3002010BD032010BD0A2010BD042010BDEE2E2000C9
:201100000035102140118008F02E2000E02E2000BC1B8100642E2000482E2000FD490860D6
:20112000704708B5C11E40F2FE72914201D3002008BD05218DF800108DF80100000A8DF85E
:2011400002006A4603214FF66E4010F4CFF10028EED0012008BD30B5EF4B1D681B1D1C68D6
:201160001B1D1B6805600C60136030BD08B50F208DF800006A4601214FF6805010F4B6F180
:2011800008B1002008BD072008BD2DE9F84301884FF68058E14D0446414521D1A0790F288E
:2011A00004D0132807D014281AD109E06088ADF80000AC2010E06088ADF80000A8200BE0B0
:2011C000E079217AA27A00EB0120617A090401EB026108440090AE202A680AB1694690473F
:2011E00020884FF66E46B04207D1607928B96088ADF800002A68A62062BB20884FF6825702
:20120000B8421CD1A079052819D1E079092804D01E2807D01F2812D109E06088ADF800009C
:20122000AB2008E06088ADF80000AA2003E06088ADF80000AD202A680AB1694690472088EC
:20124000A0F57D41873909D16088ADF800002A68AF201AB169469047BDE8F8832088404515
:20126000FAD0A0F57D418139F6D0B842F4D0B042F2D0AB480268002AEED0032069460094B4
:201280009047E9E710B510F431F108B1002010BD072010BD0146A24808B50268002A03D0CD
:2012A000009104206946904708BD0EB510228DF800208DF80100020A8DF80220020C000E3F
:2012C0008DF804008DF80510080A8DF80600080C8DF80700080E8DF803208DF808006A46B3
:2012E00009214FF6805010F401F108B100200EBD07200EBD0A2801D9002070470120704768
:2013000030B58BB004462C21684648F4A9F613208DF80000207800220121022803D00128D3
:2013200007D048B190E08DF801108DF80220032182E08DF8011001E08DF80120E07902280A
:201340000DD1207AFFF7D6FF00287DD09DF8020040F001008DF80200207A8DF8030060788C
:2013600001280DD1A078FFF7C5FF00286CD09DF8020040F004008DF80200A0788DF804003D
:20138000607901280CD1A079FFF7B4FFE0B39DF8020040F008008DF80200A0798DF8050020
:2013A000E07801280CD12079FFF7A4FF60B39DF8020040F010008DF8020020798DF8060008
:2013C000E0790721012837D1607A401E0B283BD29DF80200002140F002008DF80200607A98
:2013E0008DF807001FE004EB4100827A02EB42034C4A126802EB03131A8A5D78C37A022D0C
:2014000003D002200BB030BD1EE01846FFF772FFD0B101EB4105684628440272120A42725B
:20142000491C8372C9B29DF807008842DBD8C0B200EB40000830C1B26A464FF6805010F4AD
:2014400055F018B10020DDE70320DBE70720D9E708B505218DF8001009218DF8011000B1E5
:2014600001208DF802006A4603214FF6825010F43DF008B1002008BD072008BD08B505213B
:201480008DF800101E218DF8011000B101208DF802006A4603214FF6825010F427F008B1CA
:2014A000002008BD072008BD08B505218DF800101F218DF8011000B101208DF802006A4604
:2014C00003214FF6825010F411F008B1002008BD072008BD08B514208DF800006A460121FA
:2014E0004FF6805010F402F008B1002008BD072008BD1CB50A004FF008018DF800108DF81A
:20150000010011D01068CDF80200107907218DF806000AE0147F20001C1B2000482E2000E4
:20152000F42D2000642E200002216A464FF687500FF4DCF708B100201CBD07201CBD000041
:201540000B4910B5A1F17C020A4CC2E93712372106E000EB104342F82130074B00FB034081
:201560000B1EA1F10101F4DC10BD0120E8E70000947F2000E119D666CD0D01004FF04070EE
:20158000E1EE100A7047000001D1850E07000000BDE9800000000000000000000000000019
:2015A00000000000E7E9800005EA80004C1D8100F81D8100401D8100001E8100A41D81002D
:2015C000181E81000C1E8100941D8100941D8100941D8100941D8100341D8100EC1D810085
:2015E000941D81005C1D8100BC1D8100D01D81003C1D8100241D8100A41C8100781C810005
:20160000D81D81008C1D8100781D8100101D8100D01C8100F01C8100541C8100201C8100BE
:20162000301D8100181C81004C1C8100101C8100441C81002C1D8100C41D8100281C8100BF
:201640005C1C8100881C8100AC1C8100D81C8100F81C8100BC1C8100981C8100581D810095
:201660006C1C8100381C8100801C8100C81C8100E81C8100081D81001C1D8100B01D8100D7
:201680009C1D8100E41D8100641D8100441D8100241E8100801D81006C1D8100381D8100E9
:2016A0006D616C6C6F630063616C6C6F63007265616C6C6F63006170705F6D61696E5F744A
:2016C00061736B00424C455F4F5441000000000000000000000000000000000000000000B5
:2016E000000000000000000000000000020800280F1800000000000000000000000002008F
:20170000000000000100000002000328120000000000000000000000000001000000000088
:20172000010000000400192A00000000000000000000000000000000000000000100000060
:2017400012000229000000000000000000000000000002000000000011000000FBF98000C5
:20176000000000008BFA8000020800280A180000000000000000000000000200000000000E
:20178000010000000200032802000000000000000000000000000100000000000100000017
:2017A0000400292A00000000000000000000000000000000000000000100000002000328A4
:2017C0000200000000000000000000000000010000000000010000000400242A00000000B3
:2017E0000000000000000000000000000000000001000000020003280200000000000000B9
:20180000000000000000010000000000010000000400252A00000000000000000000000073
:20182000000000000000000001000000020003280200000000000000000000000000010077
:2018400000000000010000000400272A000000000000000000000000000000000000000032
:20186000010000000200032802000000000000000000000000000100000000000100000036
:201880000400262A00000000000000000000000000000000000000000100000002000328C6
:2018A0000200000000000000000000000000010000000000010000000400282A00000000CE
:2018C0000000000000000000000000000000000001000000020003280200000000000000D8
:2018E000000000000000010000000000010000000400232A00000000000000000000000095
:20190000000000000000000001000000020003280200000000000000000000000000010096
:20192000000000000100000004002A2A00000000000000000000000000000000000000004E
:20194000010000000200032802000000000000000000000000000100000000000100000055
:201960000400502A00000000000000000000000000000000000000000100000014020000D2
:2019800061FC8000000000000000000012A24D2EFE14488E93D2173CFFD00000000800289C
:2019A000000000000000000000000000000010008C198100010000000200032804000000BF
:2019C00000000000000000000000010000000000010000000400D1FF000000000000000031
:2019E0000000000000000200000000001100000002000328020000000000000000000000A5
:201A00000000010000000000010000000400D2FF00000000000000000000000000000100EE
:201A2000000000000100000002000328020000000000000000000000000001000000000075
:201A4000010000000400D3FF000000000000000000000000000001000000000001000000AD
:201A6000020003280200000000000000000000000000010000000000010000000400D4FF5E
:201A8000000000000000000000000000000001000000000001000000020003280200000015
:201AA00000000000000000000000010000000000010000000400D5FF00000000000000004C
:201AC0000000000000000100000000000100000002000328040000000000000000000000D3
:201AE0000000010000000000010000000400D8FF0000000000000000000000000000000009
:201B0000000000001000000002000328020000000000000000000000000001000000000085
:201B2000010000000400F1FF000000000000000000000000000001000000000001000000AE
:201B4000020003280800000000000000000000000000010000000000010000000400F2FF59
:201B6000000000000000000000000000000005000000000010000000020003280200000021
:201B800000000000000000000000010000000000010000000400E0FF000000000000000060
:201BA0000000000000000100000000000100000067FF800079FE8000000000006C655F72A4
:201BC0006561645F72656D6F74655F76657273696F6E006C655F77726974655F617574681F
:201BE000656E5F7061796C6F61645F74696D656F757400636C69656E745F73656E645F6517
:201C0000786368616E67655F6D74755F726571004932433000000000535049300000000080
:201C2000554152543000000047444D4130204368616E6E656C3000004750494F5F47726F30
:201C40007570300049324331000000005350493100000000554152543100000047444D41DD
:201C600030204368616E6E656C3100004750494F5F47726F7570310054494D320000000042
:201C8000554152543200000047444D4130204368616E6E656C3200004750494F5F47726FCC
:201CA0007570320054494D330000000047444D4130204368616E6E656C3300004750494F6C
:201CC0005F47726F7570330054494D34000000004750494F3400000047444D4130204368D0
:201CE000616E6E656C34000054494D35000000004750494F3500000047444D41302043680B
:201D0000616E6E656C35000054494D360000000054696D6572342D370000000054494D37A6
:201D20000000000042544D41430000004144430052544300535643004C43440057444700EA
:201D40004E4D49004C50434F4D500000496E697469616C53500000004952000050656E6445
:201D600053560000535049325700000053504F525431205258000000493253305F525800AB
:201D800053504F525431205458000000493253305F54580052737664000000005164656389
:201DA0006F6465004D656D4D616E6167650000005350495F466C61736800000053797354B7
:201DC00069636B005065726970686572616C000053797374656D0000506C6174666F726DF6
:201DE000000000004B65797363616E0044656275674D6F6E00000000526573657400000001
:201E0000486172644661756C7400000055736167654661756C7400004275734661756C7430
:201E2000000000005054415F4D61696C626F78005363656E655F42005363656E655F430073
:201E4000426F6F744F6E6365000000000038200001E4800091E7800091E7800091E78000C4
:201E600091E7800091E780000000000000000000000000000000000091E7800091E7800082
:201E80000000000091E7800091E7800091E7800091E7800091E7800091E7800091E780007A
:201EA00091E7800091E7800091E7800091E7800091E7800091E7800091E7800091E7800062
:201EC00091E7800091E7800091E7800091E7800091E7800091E7800091E7800091E7800042
:201EE00091E7800091E7800091E7800091E7800091E78000017C2000597C200091E7800080
:201F0000B17C2000FF7C200091E7800091E7800091E7800091E7800091E7800091E7800009
:201F200091E7800091E7800091E7800091E7800091E7800091E7800091E7800091E78000E1
:201F400010B55248046C04F0080008B106F2C0F504F0800008B106F2BBF504F4006008B16A
:201F600006F2B6F504F4004008B106F2B1F504F4002008B106F2ACF504F4000008B106F21C
:201F8000A7F504F0006008B106F2A2F504F0004008B106F29DF510BD10B53C48046C04F018
:201FA000040008B106F294F504F0400008B106F28FF504F4806008B106F28AF504F48040BA
:201FC00008B106F285F504F4802008B106F280F504F4800008B106F27BF504F0806008B1F2
:201FE00006F276F504F0804008B106F271F510BD10B52648046C04F0020008B106F268F53F
:2020000004F4007008B106F263F504F4005008B106F25EF504F4003008B106F259F504F4E4
:20202000001008B106F254F504F0007008B106F24FF504F0005008B106F24AF510BD10B577
:202040001248046C04F0010008B106F241F504F4807008B106F23CF504F4805008B106F297
:2020600037F504F4803008B106F232F504F4801008B106F22DF504F0807008B106F228F5A7
:2020800004F0805008B106F223F510BD001000407465720101031900000201050319000009
:2020A0000809424C455F4F544100000081EE8000401E81004C2181004C218100FC7F2000B4
:2020C000FC7F2000FC7F2000000000000000000000000000301E81004C2181004C2181001F
:2020E000FC7F2000FC7F2000FC7F2000000000000000000000000000381E81004C2181004A
:202100004C218100FC7F2000FC7F2000FC7F200000000000000000000000000000010200FD
:2021200000030405015D0000000001FE006578706572696D656E74616C0000000000000028
:0C2140000000000000000000000E000085
:00000001FF
